{
  "contractName": "ChangeGuaranteeRequest",
  "abi": [
    {
      "constant": false,
      "inputs": [
        {
          "name": "comment",
          "type": "string"
        }
      ],
      "name": "reject",
      "outputs": [
        {
          "name": "result",
          "type": "bool"
        }
      ],
      "payable": false,
      "stateMutability": "nonpayable",
      "type": "function"
    },
    {
      "constant": false,
      "inputs": [
        {
          "name": "_guaranteeIPFSHash",
          "type": "bytes"
        }
      ],
      "name": "signComplite",
      "outputs": [
        {
          "name": "",
          "type": "address"
        }
      ],
      "payable": false,
      "stateMutability": "nonpayable",
      "type": "function"
    },
    {
      "constant": false,
      "inputs": [],
      "name": "accept",
      "outputs": [
        {
          "name": "result",
          "type": "bool"
        }
      ],
      "payable": false,
      "stateMutability": "nonpayable",
      "type": "function"
    },
    {
      "constant": false,
      "inputs": [
        {
          "name": "_newamount",
          "type": "uint256"
        },
        {
          "name": "_newendDate",
          "type": "uint256"
        }
      ],
      "name": "changeRequested",
      "outputs": [],
      "payable": false,
      "stateMutability": "nonpayable",
      "type": "function"
    },
    {
      "constant": true,
      "inputs": [],
      "name": "isExpired",
      "outputs": [
        {
          "name": "",
          "type": "bool"
        }
      ],
      "payable": false,
      "stateMutability": "view",
      "type": "function"
    },
    {
      "constant": false,
      "inputs": [],
      "name": "getGuaranteeAddress",
      "outputs": [
        {
          "name": "",
          "type": "address"
        }
      ],
      "payable": false,
      "stateMutability": "nonpayable",
      "type": "function"
    },
    {
      "constant": false,
      "inputs": [],
      "name": "close",
      "outputs": [],
      "payable": false,
      "stateMutability": "nonpayable",
      "type": "function"
    },
    {
      "constant": false,
      "inputs": [],
      "name": "setRegulator",
      "outputs": [],
      "payable": false,
      "stateMutability": "nonpayable",
      "type": "function"
    },
    {
      "constant": false,
      "inputs": [
        {
          "name": "comment",
          "type": "string"
        }
      ],
      "name": "withdrawal",
      "outputs": [
        {
          "name": "result",
          "type": "bool"
        }
      ],
      "payable": false,
      "stateMutability": "nonpayable",
      "type": "function"
    },
    {
      "constant": true,
      "inputs": [],
      "name": "version",
      "outputs": [
        {
          "name": "",
          "type": "string"
        }
      ],
      "payable": false,
      "stateMutability": "view",
      "type": "function"
    },
    {
      "constant": true,
      "inputs": [],
      "name": "getCustomer",
      "outputs": [
        {
          "name": "",
          "type": "address"
        }
      ],
      "payable": false,
      "stateMutability": "view",
      "type": "function"
    },
    {
      "constant": true,
      "inputs": [],
      "name": "guaranteel",
      "outputs": [
        {
          "name": "",
          "type": "address"
        }
      ],
      "payable": false,
      "stateMutability": "view",
      "type": "function"
    },
    {
      "constant": true,
      "inputs": [],
      "name": "getOwner",
      "outputs": [
        {
          "name": "",
          "type": "address"
        }
      ],
      "payable": false,
      "stateMutability": "view",
      "type": "function"
    },
    {
      "constant": true,
      "inputs": [],
      "name": "changeRequestGuaranteeAdr",
      "outputs": [
        {
          "name": "",
          "type": "address"
        }
      ],
      "payable": false,
      "stateMutability": "view",
      "type": "function"
    },
    {
      "constant": true,
      "inputs": [],
      "name": "owner",
      "outputs": [
        {
          "name": "",
          "type": "address"
        }
      ],
      "payable": false,
      "stateMutability": "view",
      "type": "function"
    },
    {
      "constant": true,
      "inputs": [],
      "name": "getRequestState",
      "outputs": [
        {
          "name": "",
          "type": "uint8"
        }
      ],
      "payable": false,
      "stateMutability": "view",
      "type": "function"
    },
    {
      "constant": false,
      "inputs": [
        {
          "name": "_newOwner",
          "type": "address"
        }
      ],
      "name": "changeOwner",
      "outputs": [],
      "payable": false,
      "stateMutability": "nonpayable",
      "type": "function"
    },
    {
      "constant": false,
      "inputs": [],
      "name": "terminateGuarantee",
      "outputs": [],
      "payable": false,
      "stateMutability": "nonpayable",
      "type": "function"
    },
    {
      "constant": false,
      "inputs": [],
      "name": "isChangeRequest",
      "outputs": [
        {
          "name": "",
          "type": "bool"
        }
      ],
      "payable": false,
      "stateMutability": "nonpayable",
      "type": "function"
    },
    {
      "constant": false,
      "inputs": [
        {
          "name": "comment",
          "type": "string"
        }
      ],
      "name": "submit",
      "outputs": [
        {
          "name": "result",
          "type": "bool"
        }
      ],
      "payable": false,
      "stateMutability": "nonpayable",
      "type": "function"
    },
    {
      "constant": true,
      "inputs": [],
      "name": "regulator",
      "outputs": [
        {
          "name": "",
          "type": "address"
        }
      ],
      "payable": false,
      "stateMutability": "view",
      "type": "function"
    },
    {
      "constant": false,
      "inputs": [
        {
          "name": "comment",
          "type": "string"
        },
        {
          "name": "_newState",
          "type": "uint8"
        }
      ],
      "name": "bankStateChange",
      "outputs": [
        {
          "name": "result",
          "type": "bool"
        }
      ],
      "payable": false,
      "stateMutability": "nonpayable",
      "type": "function"
    },
    {
      "constant": false,
      "inputs": [],
      "name": "getRegulator",
      "outputs": [
        {
          "name": "",
          "type": "address"
        }
      ],
      "payable": false,
      "stateMutability": "nonpayable",
      "type": "function"
    },
    {
      "inputs": [
        {
          "name": "guaranteeExtender",
          "type": "address"
        },
        {
          "name": "requestAmount",
          "type": "uint256"
        },
        {
          "name": "requestEndDate",
          "type": "uint256"
        }
      ],
      "payable": false,
      "stateMutability": "nonpayable",
      "type": "constructor"
    },
    {
      "anonymous": false,
      "inputs": [
        {
          "indexed": false,
          "name": "guaranteeExtender",
          "type": "address"
        },
        {
          "indexed": false,
          "name": "requestAmount",
          "type": "uint256"
        },
        {
          "indexed": false,
          "name": "requestEndDate",
          "type": "uint256"
        },
        {
          "indexed": false,
          "name": "curentstatus",
          "type": "uint8"
        },
        {
          "indexed": false,
          "name": "timestamp",
          "type": "uint256"
        }
      ],
      "name": "ChangeGuaranteeRequestCreated",
      "type": "event"
    },
    {
      "anonymous": false,
      "inputs": [
        {
          "indexed": true,
          "name": "requestId",
          "type": "address"
        },
        {
          "indexed": true,
          "name": "guarantieId",
          "type": "address"
        },
        {
          "indexed": false,
          "name": "newamount",
          "type": "uint256"
        },
        {
          "indexed": false,
          "name": "newendDate",
          "type": "uint256"
        },
        {
          "indexed": false,
          "name": "curentstatus",
          "type": "uint8"
        },
        {
          "indexed": false,
          "name": "timestamp",
          "type": "uint256"
        }
      ],
      "name": "GuarantieChangeRequested",
      "type": "event"
    },
    {
      "anonymous": false,
      "inputs": [
        {
          "indexed": true,
          "name": "requestId",
          "type": "address"
        },
        {
          "indexed": true,
          "name": "msgSender",
          "type": "address"
        },
        {
          "indexed": false,
          "name": "curentstatus",
          "type": "uint8"
        },
        {
          "indexed": false,
          "name": "commentline",
          "type": "string"
        },
        {
          "indexed": false,
          "name": "timestamp",
          "type": "uint256"
        }
      ],
      "name": "Submitted",
      "type": "event"
    },
    {
      "anonymous": false,
      "inputs": [
        {
          "indexed": true,
          "name": "requestId",
          "type": "address"
        },
        {
          "indexed": true,
          "name": "msgSender",
          "type": "address"
        },
        {
          "indexed": false,
          "name": "curentstatus",
          "type": "uint8"
        },
        {
          "indexed": false,
          "name": "commentline",
          "type": "string"
        },
        {
          "indexed": false,
          "name": "timestamp",
          "type": "uint256"
        }
      ],
      "name": "Withdrawal",
      "type": "event"
    },
    {
      "anonymous": false,
      "inputs": [
        {
          "indexed": true,
          "name": "requestId",
          "type": "address"
        },
        {
          "indexed": true,
          "name": "msgSender",
          "type": "address"
        },
        {
          "indexed": false,
          "name": "curentstatus",
          "type": "uint8"
        },
        {
          "indexed": false,
          "name": "timestamp",
          "type": "uint256"
        }
      ],
      "name": "Termination",
      "type": "event"
    },
    {
      "anonymous": false,
      "inputs": [
        {
          "indexed": true,
          "name": "requestId",
          "type": "address"
        },
        {
          "indexed": true,
          "name": "msgSender",
          "type": "address"
        },
        {
          "indexed": false,
          "name": "curentstatus",
          "type": "uint8"
        },
        {
          "indexed": false,
          "name": "commentline",
          "type": "string"
        },
        {
          "indexed": false,
          "name": "timestamp",
          "type": "uint256"
        }
      ],
      "name": "Rejected",
      "type": "event"
    },
    {
      "anonymous": false,
      "inputs": [
        {
          "indexed": true,
          "name": "requestId",
          "type": "address"
        },
        {
          "indexed": true,
          "name": "msgSender",
          "type": "address"
        },
        {
          "indexed": false,
          "name": "curentstatus",
          "type": "uint8"
        },
        {
          "indexed": false,
          "name": "commentline",
          "type": "string"
        },
        {
          "indexed": false,
          "name": "timestamp",
          "type": "uint256"
        }
      ],
      "name": "BankStateChange",
      "type": "event"
    },
    {
      "anonymous": false,
      "inputs": [
        {
          "indexed": true,
          "name": "requestId",
          "type": "address"
        },
        {
          "indexed": true,
          "name": "msgSender",
          "type": "address"
        },
        {
          "indexed": false,
          "name": "curentstatus",
          "type": "uint8"
        },
        {
          "indexed": false,
          "name": "timestamp",
          "type": "uint256"
        }
      ],
      "name": "Accepted",
      "type": "event"
    },
    {
      "anonymous": false,
      "inputs": [
        {
          "indexed": true,
          "name": "requestId",
          "type": "address"
        },
        {
          "indexed": true,
          "name": "guarantieId",
          "type": "address"
        },
        {
          "indexed": false,
          "name": "curentstatus",
          "type": "uint8"
        },
        {
          "indexed": false,
          "name": "timestamp",
          "type": "uint256"
        }
      ],
      "name": "GuarantieSigned",
      "type": "event"
    },
    {
      "anonymous": false,
      "inputs": [
        {
          "indexed": true,
          "name": "requestId",
          "type": "address"
        },
        {
          "indexed": true,
          "name": "guarantieId",
          "type": "address"
        },
        {
          "indexed": false,
          "name": "curentstatus",
          "type": "uint8"
        },
        {
          "indexed": false,
          "name": "timestamp",
          "type": "uint256"
        }
      ],
      "name": "GuarantieChangeSigned",
      "type": "event"
    },
    {
      "constant": true,
      "inputs": [],
      "name": "getId",
      "outputs": [
        {
          "name": "_contract_id",
          "type": "address"
        }
      ],
      "payable": false,
      "stateMutability": "view",
      "type": "function"
    },
    {
      "constant": true,
      "inputs": [],
      "name": "getAmount",
      "outputs": [
        {
          "name": "",
          "type": "uint256"
        }
      ],
      "payable": false,
      "stateMutability": "view",
      "type": "function"
    },
    {
      "constant": true,
      "inputs": [],
      "name": "getBank",
      "outputs": [
        {
          "name": "",
          "type": "address"
        }
      ],
      "payable": false,
      "stateMutability": "view",
      "type": "function"
    },
    {
      "constant": true,
      "inputs": [],
      "name": "getBeneficiary",
      "outputs": [
        {
          "name": "",
          "type": "address"
        }
      ],
      "payable": false,
      "stateMutability": "view",
      "type": "function"
    },
    {
      "constant": true,
      "inputs": [],
      "name": "getEndDate",
      "outputs": [
        {
          "name": "",
          "type": "uint256"
        }
      ],
      "payable": false,
      "stateMutability": "view",
      "type": "function"
    },
    {
      "constant": true,
      "inputs": [],
      "name": "getGuaranteeRequestData",
      "outputs": [
        {
          "name": "_contract_id",
          "type": "address"
        },
        {
          "name": "_customer",
          "type": "address"
        },
        {
          "name": "_bank",
          "type": "address"
        },
        {
          "name": "_beneficiary",
          "type": "address"
        },
        {
          "name": "_full_name",
          "type": "bytes32"
        },
        {
          "name": "_purpose",
          "type": "bytes32"
        },
        {
          "name": "_amount",
          "type": "uint256"
        },
        {
          "name": "_startDate",
          "type": "uint256"
        },
        {
          "name": "_endDate",
          "type": "uint256"
        },
        {
          "name": "_indexType",
          "type": "uint8"
        },
        {
          "name": "_indexDate",
          "type": "uint256"
        },
        {
          "name": "_status",
          "type": "uint8"
        },
        {
          "name": "_isChangeGuarantee",
          "type": "bool"
        },
        {
          "name": "_changedGuarantee",
          "type": "address"
        }
      ],
      "payable": false,
      "stateMutability": "view",
      "type": "function"
    },
    {
      "constant": true,
      "inputs": [],
      "name": "getProposalIPFSHash",
      "outputs": [
        {
          "name": "_roposalIPFSHash",
          "type": "bytes"
        }
      ],
      "payable": false,
      "stateMutability": "view",
      "type": "function"
    },
    {
      "constant": true,
      "inputs": [],
      "name": "getChangeRequestGuarantee",
      "outputs": [
        {
          "name": "",
          "type": "address"
        }
      ],
      "payable": false,
      "stateMutability": "view",
      "type": "function"
    },
    {
      "constant": true,
      "inputs": [],
      "name": "isValid",
      "outputs": [
        {
          "name": "",
          "type": "bool"
        }
      ],
      "payable": false,
      "stateMutability": "view",
      "type": "function"
    }
  ],
  "bytecode": "0x6080604052336000806101000a81548173ffffffffffffffffffffffffffffffffffffffff021916908373ffffffffffffffffffffffffffffffffffffffff1602179055506040805190810160405280600481526020017f312e30300000000000000000000000000000000000000000000000000000000081525060039080519060200190620000919291906200043d565b503480156200009f57600080fd5b5060405160608062003e2983398101806040528101908080519060200190929190805190602001909291908051906020019092919050505060008390508073ffffffffffffffffffffffffffffffffffffffff166388a22f7a6040518163ffffffff167c0100000000000000000000000000000000000000000000000000000000028152600401602060405180830381600087803b1580156200014157600080fd5b505af115801562000156573d6000803e3d6000fd5b505050506040513d60208110156200016d57600080fd5b8101908080519060200190929190505050600660006101000a81548173ffffffffffffffffffffffffffffffffffffffff021916908373ffffffffffffffffffffffffffffffffffffffff16021790555082600481905550816005819055506001600060146101000a81548160ff0219169083600a811115620001ec57fe5b0217905550620002ce600660009054906101000a900473ffffffffffffffffffffffffffffffffffffffff1673ffffffffffffffffffffffffffffffffffffffff1663650d993b6040518163ffffffff167c0100000000000000000000000000000000000000000000000000000000028152600401602060405180830381600087803b1580156200027c57600080fd5b505af115801562000291573d6000803e3d6000fd5b505050506040513d6020811015620002a857600080fd5b810190808051906020019092919050505062000379640100000000026401000000009004565b7f6668e9152381aa2ab70b4dd997e35907eff8ddc3eede437bf5fd8eec574ca770848484600060149054906101000a900460ff1642604051808673ffffffffffffffffffffffffffffffffffffffff1673ffffffffffffffffffffffffffffffffffffffff16815260200185815260200184815260200183600a8111156200035257fe5b60ff1681526020018281526020019550505050505060405180910390a150505050620004ec565b6000809054906101000a900473ffffffffffffffffffffffffffffffffffffffff1673ffffffffffffffffffffffffffffffffffffffff163373ffffffffffffffffffffffffffffffffffffffff16141515620003d557600080fd5b60008173ffffffffffffffffffffffffffffffffffffffff161415620003fa57600080fd5b806000806101000a81548173ffffffffffffffffffffffffffffffffffffffff021916908373ffffffffffffffffffffffffffffffffffffffff16021790555050565b828054600181600116156101000203166002900490600052602060002090601f016020900481019282601f106200048057805160ff1916838001178555620004b1565b82800160010185558215620004b1579182015b82811115620004b057825182559160200191906001019062000493565b5b509050620004c09190620004c4565b5090565b620004e991905b80821115620004e5576000816000905550600101620004cb565b5090565b90565b61392d80620004fc6000396000f300608060405260043610620001b7576000357c0100000000000000000000000000000000000000000000000000000000900463ffffffff1680631c32e7af14620001bc578063201c5cc114620003535780632259515b14620003d75780632852b71c14620004835780632beba68b14620004b55780632f13b60c14620004ef5780633f40d18f146200052157806343d726d6146200057b5780634a0b20aa14620005955780634a51c31c14620005af57806354fd4d501462000633578063565a2e2c14620006c95780635d1ca631146200072357806360d704db146200077d578063650d993b14620007d75780636f00817e146200083157806379d259f4146200088b578063893d20e814620008e55780638b54d0e4146200093f5780638da5cb5b1462000999578063a39152f214620009f3578063a6f9dae11462000a30578063b13564881462000a76578063bb5d40eb1462000aa4578063c3287ea71462000ad6578063c700c70d1462000b6c578063cded37371462000b86578063d321fe291462000bb8578063d99a8dc31462000be6578063dd8fee141462000c6a578063f40bd94a1462000cc4578063f7e317f41462000d55575b600080fd5b348015620001c957600080fd5b50620001d462000daf565b604051808f73ffffffffffffffffffffffffffffffffffffffff1673ffffffffffffffffffffffffffffffffffffffff1681526020018e73ffffffffffffffffffffffffffffffffffffffff1673ffffffffffffffffffffffffffffffffffffffff1681526020018d73ffffffffffffffffffffffffffffffffffffffff1673ffffffffffffffffffffffffffffffffffffffff1681526020018c73ffffffffffffffffffffffffffffffffffffffff1673ffffffffffffffffffffffffffffffffffffffff1681526020018b600019166000191681526020018a60001916600019168152602001898152602001888152602001878152602001866002811115620002db57fe5b60ff16815260200185815260200184600a811115620002f657fe5b60ff168152602001831515151581526020018273ffffffffffffffffffffffffffffffffffffffff1673ffffffffffffffffffffffffffffffffffffffff1681526020019e50505050505050505050505050505060405180910390f35b3480156200036057600080fd5b50620003bd600480360381019080803590602001908201803590602001908080601f016020809104026020016040519081016040528093929190818152602001838380828437820191505050505050919291929050505062000feb565b604051808215151515815260200191505060405180910390f35b348015620003e457600080fd5b5062000441600480360381019080803590602001908201803590602001908080601f016020809104026020016040519081016040528093929190818152602001838380828437820191505050505050919291929050505062001157565b604051808273ffffffffffffffffffffffffffffffffffffffff1673ffffffffffffffffffffffffffffffffffffffff16815260200191505060405180910390f35b3480156200049057600080fd5b506200049b620014cb565b604051808215151515815260200191505060405180910390f35b348015620004c257600080fd5b50620004ed6004803603810190808035906020019092919080359060200190929190505050620016af565b005b348015620004fc57600080fd5b50620005076200179e565b604051808215151515815260200191505060405180910390f35b3480156200052e57600080fd5b5062000539620017b1565b604051808273ffffffffffffffffffffffffffffffffffffffff1673ffffffffffffffffffffffffffffffffffffffff16815260200191505060405180910390f35b3480156200058857600080fd5b5062000593620017db565b005b348015620005a257600080fd5b50620005ad62001871565b005b348015620005bc57600080fd5b5062000619600480360381019080803590602001908201803590602001908080601f0160208091040260200160405190810160405280939291908181526020018383808284378201915050505050509192919290505050620018b4565b604051808215151515815260200191505060405180910390f35b3480156200064057600080fd5b506200064b62001a64565b6040518080602001828103825283818151815260200191508051906020019080838360005b838110156200068d57808201518184015260208101905062000670565b50505050905090810190601f168015620006bb5780820380516001836020036101000a031916815260200191505b509250505060405180910390f35b348015620006d657600080fd5b50620006e162001b06565b604051808273ffffffffffffffffffffffffffffffffffffffff1673ffffffffffffffffffffffffffffffffffffffff16815260200191505060405180910390f35b3480156200073057600080fd5b506200073b62001bd1565b604051808273ffffffffffffffffffffffffffffffffffffffff1673ffffffffffffffffffffffffffffffffffffffff16815260200191505060405180910390f35b3480156200078a57600080fd5b506200079562001bd9565b604051808273ffffffffffffffffffffffffffffffffffffffff1673ffffffffffffffffffffffffffffffffffffffff16815260200191505060405180910390f35b348015620007e457600080fd5b50620007ef62001ca4565b604051808273ffffffffffffffffffffffffffffffffffffffff1673ffffffffffffffffffffffffffffffffffffffff16815260200191505060405180910390f35b3480156200083e57600080fd5b506200084962001ccd565b604051808273ffffffffffffffffffffffffffffffffffffffff1673ffffffffffffffffffffffffffffffffffffffff16815260200191505060405180910390f35b3480156200089857600080fd5b50620008a362001cf7565b604051808273ffffffffffffffffffffffffffffffffffffffff1673ffffffffffffffffffffffffffffffffffffffff16815260200191505060405180910390f35b348015620008f257600080fd5b50620008fd62001d1d565b604051808273ffffffffffffffffffffffffffffffffffffffff1673ffffffffffffffffffffffffffffffffffffffff16815260200191505060405180910390f35b3480156200094c57600080fd5b506200095762001d46565b604051808273ffffffffffffffffffffffffffffffffffffffff1673ffffffffffffffffffffffffffffffffffffffff16815260200191505060405180910390f35b348015620009a657600080fd5b50620009b162001d6c565b604051808273ffffffffffffffffffffffffffffffffffffffff1673ffffffffffffffffffffffffffffffffffffffff16815260200191505060405180910390f35b34801562000a0057600080fd5b5062000a0b62001d91565b6040518082600a81111562000a1c57fe5b60ff16815260200191505060405180910390f35b34801562000a3d57600080fd5b5062000a74600480360381019080803573ffffffffffffffffffffffffffffffffffffffff16906020019092919050505062001da7565b005b34801562000a8357600080fd5b5062000a8e62001e6b565b6040518082815260200191505060405180910390f35b34801562000ab157600080fd5b5062000abc62001e75565b604051808215151515815260200191505060405180910390f35b34801562000ae357600080fd5b5062000aee62001ef8565b6040518080602001828103825283818151815260200191508051906020019080838360005b8381101562000b3057808201518184015260208101905062000b13565b50505050905090810190601f16801562000b5e5780820380516001836020036101000a031916815260200191505b509250505060405180910390f35b34801562000b7957600080fd5b5062000b8462001f10565b005b34801562000b9357600080fd5b5062000b9e62002002565b604051808215151515815260200191505060405180910390f35b34801562000bc557600080fd5b5062000bd062002042565b6040518082815260200191505060405180910390f35b34801562000bf357600080fd5b5062000c50600480360381019080803590602001908201803590602001908080601f01602080910402602001604051908101604052809392919081815260200183838082843782019150505050505091929192905050506200204c565b604051808215151515815260200191505060405180910390f35b34801562000c7757600080fd5b5062000c82620021fb565b604051808273ffffffffffffffffffffffffffffffffffffffff1673ffffffffffffffffffffffffffffffffffffffff16815260200191505060405180910390f35b34801562000cd157600080fd5b5062000d3b600480360381019080803590602001908201803590602001908080601f0160208091040260200160405190810160405280939291908181526020018383808284378201915050505050509192919290803560ff16906020019092919050505062002221565b604051808215151515815260200191505060405180910390f35b34801562000d6257600080fd5b5062000d6d62002461565b604051808273ffffffffffffffffffffffffffffffffffffffff1673ffffffffffffffffffffffffffffffffffffffff16815260200191505060405180910390f35b600080600080600080600080600080600080600080600660009054906101000a900473ffffffffffffffffffffffffffffffffffffffff1673ffffffffffffffffffffffffffffffffffffffff16631c32e7af6040518163ffffffff167c01000000000000000000000000000000000000000000000000000000000281526004016101c060405180830381600087803b15801562000e4c57600080fd5b505af115801562000e61573d6000803e3d6000fd5b505050506040513d6101c081101562000e7957600080fd5b810190808051906020019092919080519060200190929190805190602001909291908051906020019092919080519060200190929190805190602001909291908051906020019092919080519060200190929190805190602001909291908051906020019092919080519060200190929190805190602001909291908051906020019092919080519060200190929190505050909192939495969798999a9b9c50909192939495969798999a9b50909192939495969798999a5090919293949596979899509091929394959650909192939450909150905050809850819950829b50839d50849e50505050505062000f7062001ca4565b9c5062000f7c62001b06565b9a5062000f8862001bd9565b9b5062000f9462001bd1565b9d506004549750600060149054906101000a900460ff169250600554955060019150600660009054906101000a900473ffffffffffffffffffffffffffffffffffffffff169050909192939495969798999a9b9c9d565b60006006600a81111562000ffb57fe5b600060149054906101000a900460ff16600a8111156200101757fe5b141515156200102557600080fd5b6008600060146101000a81548160ff0219169083600a8111156200104557fe5b02179055503373ffffffffffffffffffffffffffffffffffffffff166200106b62001bd1565b73ffffffffffffffffffffffffffffffffffffffff167feb463c1ffd4e2e84feaf7746bb60dd6b9471dbbf9edd2b020a53869f796cd78d600060149054906101000a900460ff1685426040518084600a811115620010c557fe5b60ff16815260200180602001838152602001828103825284818151815260200191508051906020019080838360005b8381101562001111578082015181840152602081019050620010f4565b50505050905090810190601f1680156200113f5780820380516001836020036101000a031916815260200191505b5094505050505060405180910390a360019050919050565b6000806006600a8111156200116857fe5b6200117262001d91565b600a8111156200117e57fe5b14801562001193575062001192836200248b565b5b8015620011d45750620011a562002461565b73ffffffffffffffffffffffffffffffffffffffff163373ffffffffffffffffffffffffffffffffffffffff16145b1515620011e057600080fd5b30620011eb62002461565b84620011f6620024ab565b808473ffffffffffffffffffffffffffffffffffffffff1673ffffffffffffffffffffffffffffffffffffffff1681526020018373ffffffffffffffffffffffffffffffffffffffff1673ffffffffffffffffffffffffffffffffffffffff16815260200180602001828103825283818151815260200191508051906020019080838360005b83811015620012995780820151818401526020810190506200127c565b50505050905090810190601f168015620012c75780820380516001836020036101000a031916815260200191505b50945050505050604051809103906000f080158015620012eb573d6000803e3d6000fd5b50905080600260006101000a81548173ffffffffffffffffffffffffffffffffffffffff021916908373ffffffffffffffffffffffffffffffffffffffff1602179055506200133962002002565b15620013f257600260009054906101000a900473ffffffffffffffffffffffffffffffffffffffff1673ffffffffffffffffffffffffffffffffffffffff163073ffffffffffffffffffffffffffffffffffffffff167f5cf2a7101a7acad9a26aabd8c2b95e616fa3c5c8e93e3f30419151a370f4ef34600060149054906101000a900460ff16426040518083600a811115620013d257fe5b60ff1681526020018281526020019250505060405180910390a3620014a0565b600260009054906101000a900473ffffffffffffffffffffffffffffffffffffffff1673ffffffffffffffffffffffffffffffffffffffff163073ffffffffffffffffffffffffffffffffffffffff167f9f3a4dc4a2920969299d37a1a55dc00ce978fe5e0ac8b2a4d87fbe66fd4d283b600060149054906101000a900460ff16426040518083600a8111156200148557fe5b60ff1681526020018281526020019250505060405180910390a35b600260009054906101000a900473ffffffffffffffffffffffffffffffffffffffff16915050919050565b6000600160009054906101000a900473ffffffffffffffffffffffffffffffffffffffff1673ffffffffffffffffffffffffffffffffffffffff163373ffffffffffffffffffffffffffffffffffffffff161415156200152a57600080fd5b6001600a8111156200153857fe5b600060149054906101000a900460ff16600a8111156200155457fe5b14806200158857506002600a8111156200156a57fe5b600060149054906101000a900460ff16600a8111156200158657fe5b145b8015620015e35750600073ffffffffffffffffffffffffffffffffffffffff16600260009054906101000a900473ffffffffffffffffffffffffffffffffffffffff1673ffffffffffffffffffffffffffffffffffffffff16145b1515620015ef57600080fd5b6006600060146101000a81548160ff0219169083600a8111156200160f57fe5b02179055503373ffffffffffffffffffffffffffffffffffffffff166200163562001bd1565b73ffffffffffffffffffffffffffffffffffffffff167f89e5f8cd748cff430d9087f4e0e0ef20acd32d0e6686df96c89d726e35e68ab5600060149054906101000a900460ff16426040518083600a8111156200168e57fe5b60ff1681526020018281526020019250505060405180910390a36001905090565b6007600060146101000a81548160ff0219169083600a811115620016cf57fe5b0217905550600260009054906101000a900473ffffffffffffffffffffffffffffffffffffffff1673ffffffffffffffffffffffffffffffffffffffff166200171762001bd1565b73ffffffffffffffffffffffffffffffffffffffff167fb42cc91db936a84b66eef34e5d2852b519032c7921629568c4589c97396a5ad28484600060149054906101000a900460ff16426040518085815260200184815260200183600a8111156200177e57fe5b60ff16815260200182815260200194505050505060405180910390a35050565b600042620017ab62001e6b565b10905090565b6000600260009054906101000a900473ffffffffffffffffffffffffffffffffffffffff16905090565b6000809054906101000a900473ffffffffffffffffffffffffffffffffffffffff1673ffffffffffffffffffffffffffffffffffffffff163373ffffffffffffffffffffffffffffffffffffffff161415156200183757600080fd5b6000809054906101000a900473ffffffffffffffffffffffffffffffffffffffff1673ffffffffffffffffffffffffffffffffffffffff16ff5b33600160006101000a81548173ffffffffffffffffffffffffffffffffffffffff021916908373ffffffffffffffffffffffffffffffffffffffff160217905550565b6000620018c062001ca4565b73ffffffffffffffffffffffffffffffffffffffff163373ffffffffffffffffffffffffffffffffffffffff16141515620018fa57600080fd5b6006600a8111156200190857fe5b600060149054906101000a900460ff16600a8111156200192457fe5b141515156200193257600080fd5b6005600060146101000a81548160ff0219169083600a8111156200195257fe5b02179055503373ffffffffffffffffffffffffffffffffffffffff166200197862001bd1565b73ffffffffffffffffffffffffffffffffffffffff167fdc36f94f1c16d61fe684e365e0c2a72b23aebb7adedf5aaa22fab76156a7efe7600060149054906101000a900460ff1685426040518084600a811115620019d257fe5b60ff16815260200180602001838152602001828103825284818151815260200191508051906020019080838360005b8381101562001a1e57808201518184015260208101905062001a01565b50505050905090810190601f16801562001a4c5780820380516001836020036101000a031916815260200191505b5094505050505060405180910390a360019050919050565b60038054600181600116156101000203166002900480601f01602080910402602001604051908101604052809291908181526020018280546001816001161561010002031660029004801562001afe5780601f1062001ad25761010080835404028352916020019162001afe565b820191906000526020600020905b81548152906001019060200180831162001ae057829003601f168201915b505050505081565b6000600660009054906101000a900473ffffffffffffffffffffffffffffffffffffffff1673ffffffffffffffffffffffffffffffffffffffff1663565a2e2c6040518163ffffffff167c0100000000000000000000000000000000000000000000000000000000028152600401602060405180830381600087803b15801562001b8f57600080fd5b505af115801562001ba4573d6000803e3d6000fd5b505050506040513d602081101562001bbb57600080fd5b8101908080519060200190929190505050905090565b600030905090565b6000600660009054906101000a900473ffffffffffffffffffffffffffffffffffffffff1673ffffffffffffffffffffffffffffffffffffffff166360d704db6040518163ffffffff167c0100000000000000000000000000000000000000000000000000000000028152600401602060405180830381600087803b15801562001c6257600080fd5b505af115801562001c77573d6000803e3d6000fd5b505050506040513d602081101562001c8e57600080fd5b8101908080519060200190929190505050905090565b60008060009054906101000a900473ffffffffffffffffffffffffffffffffffffffff16905090565b6000600660009054906101000a900473ffffffffffffffffffffffffffffffffffffffff16905090565b600260009054906101000a900473ffffffffffffffffffffffffffffffffffffffff1681565b60008060009054906101000a900473ffffffffffffffffffffffffffffffffffffffff16905090565b600660009054906101000a900473ffffffffffffffffffffffffffffffffffffffff1681565b6000809054906101000a900473ffffffffffffffffffffffffffffffffffffffff1681565b60008060149054906101000a900460ff16905090565b6000809054906101000a900473ffffffffffffffffffffffffffffffffffffffff1673ffffffffffffffffffffffffffffffffffffffff163373ffffffffffffffffffffffffffffffffffffffff1614151562001e0357600080fd5b60008173ffffffffffffffffffffffffffffffffffffffff16141562001e2857600080fd5b806000806101000a81548173ffffffffffffffffffffffffffffffffffffffff021916908373ffffffffffffffffffffffffffffffffffffffff16021790555050565b6000600554905090565b60008073ffffffffffffffffffffffffffffffffffffffff1662001e9862001bd9565b73ffffffffffffffffffffffffffffffffffffffff161415801562001ef35750600073ffffffffffffffffffffffffffffffffffffffff1662001eda62001b06565b73ffffffffffffffffffffffffffffffffffffffff1614155b905090565b60606020604051908101604052806000815250905090565b6006600a81111562001f1e57fe5b600060149054906101000a900460ff16600a81111562001f3a57fe5b14151562001f4757600080fd5b6009600060146101000a81548160ff0219169083600a81111562001f6757fe5b02179055503373ffffffffffffffffffffffffffffffffffffffff1662001f8d62001bd1565b73ffffffffffffffffffffffffffffffffffffffff167fb045224df2b3987361a530219dd4444888d47a8e07af71c364c99fe7468f176f600060149054906101000a900460ff16426040518083600a81111562001fe657fe5b60ff1681526020018281526020019250505060405180910390a3565b60008073ffffffffffffffffffffffffffffffffffffffff166200202562001ccd565b73ffffffffffffffffffffffffffffffffffffffff161415905090565b6000600454905090565b60006200205862001ca4565b73ffffffffffffffffffffffffffffffffffffffff163373ffffffffffffffffffffffffffffffffffffffff161415156200209257600080fd5b6000600a811115620020a057fe5b600060149054906101000a900460ff16600a811115620020bc57fe5b141515620020c957600080fd5b6001600060146101000a81548160ff0219169083600a811115620020e957fe5b02179055503373ffffffffffffffffffffffffffffffffffffffff166200210f62001bd1565b73ffffffffffffffffffffffffffffffffffffffff167fe10024035668761375cfcfe9cbd74261a7c93ffafc8059f85ba7477baf874921600060149054906101000a900460ff1685426040518084600a8111156200216957fe5b60ff16815260200180602001838152602001828103825284818151815260200191508051906020019080838360005b83811015620021b557808201518184015260208101905062002198565b50505050905090810190601f168015620021e35780820380516001836020036101000a031916815260200191505b5094505050505060405180910390a360019050919050565b600160009054906101000a900473ffffffffffffffffffffffffffffffffffffffff1681565b60006200222d62001bd9565b73ffffffffffffffffffffffffffffffffffffffff163373ffffffffffffffffffffffffffffffffffffffff161415156200226757600080fd5b6001600a8111156200227557fe5b600060149054906101000a900460ff16600a8111156200229157fe5b1480620022c557506002600a811115620022a757fe5b600060149054906101000a900460ff16600a811115620022c357fe5b145b80156200233257506002600a811115620022db57fe5b82600a811115620022e857fe5b14806200230d57506003600a811115620022fe57fe5b82600a8111156200230b57fe5b145b806200233157506004600a8111156200232257fe5b82600a8111156200232f57fe5b145b5b15156200233e57600080fd5b81600060146101000a81548160ff0219169083600a8111156200235d57fe5b02179055503373ffffffffffffffffffffffffffffffffffffffff166200238362001bd1565b73ffffffffffffffffffffffffffffffffffffffff167f508c5c654e715d2dda84dde20b40b29a2b462944231ab692f10b091a38541a8d8486426040518084600a811115620023ce57fe5b60ff16815260200180602001838152602001828103825284818151815260200191508051906020019080838360005b838110156200241a578082015181840152602081019050620023fd565b50505050905090810190601f168015620024485780820380516001836020036101000a031916815260200191505b5094505050505060405180910390a36001905092915050565b6000600160009054906101000a900473ffffffffffffffffffffffffffffffffffffffff16905090565b60008082511115620024a15760019050620024a6565b600090505b919050565b60405161144580620024bd8339019056006080604052336000806101000a81548173ffffffffffffffffffffffffffffffffffffffff021916908373ffffffffffffffffffffffffffffffffffffffff1602179055503480156200005157600080fd5b50604051620014453803806200144583398101806040528101908080519060200190929190805190602001909291908051820192919050505082600160006101000a81548173ffffffffffffffffffffffffffffffffffffffff021916908373ffffffffffffffffffffffffffffffffffffffff16021790555081600260006101000a81548173ffffffffffffffffffffffffffffffffffffffff021916908373ffffffffffffffffffffffffffffffffffffffff160217905550806003908051906020019062000124929190620002bc565b506001600260146101000a81548160ff021916908360048111156200014557fe5b02179055507feeb6ffd7090cc72ad3fc8b9c2879f7b97d4f9eb9b2943c50a4cbab3931db090983303384600260149054906101000a900460ff1642604051808773ffffffffffffffffffffffffffffffffffffffff1673ffffffffffffffffffffffffffffffffffffffff1681526020018673ffffffffffffffffffffffffffffffffffffffff1673ffffffffffffffffffffffffffffffffffffffff1681526020018573ffffffffffffffffffffffffffffffffffffffff1673ffffffffffffffffffffffffffffffffffffffff168152602001806020018460048111156200022b57fe5b60ff168152602001838152602001828103825285818151815260200191508051906020019080838360005b838110156200027357808201518184015260208101905062000256565b50505050905090810190601f168015620002a15780820380516001836020036101000a031916815260200191505b5097505050505050505060405180910390a15050506200036b565b828054600181600116156101000203166002900490600052602060002090601f016020900481019282601f10620002ff57805160ff191683800117855562000330565b8280016001018555821562000330579182015b828111156200032f57825182559160200191906001019062000312565b5b5090506200033f919062000343565b5090565b6200036891905b80821115620003645760008160009055506001016200034a565b5090565b90565b6110ca806200037b6000396000f3006080604052600436106100d0576000357c0100000000000000000000000000000000000000000000000000000000900463ffffffff1680631865c57d146100d55780632f13b60c1461010e57806338e537b31461013d57806343d726d6146102c4578063488523bc146102db578063565a2e2c1461036b5780635d1ca631146103c257806388a22f7a14610419578063893d20e8146104705780638da5cb5b146104c7578063a6f9dae11461051e578063b135648814610561578063bea14fc11461058c578063c700c70d146105c3575b600080fd5b3480156100e157600080fd5b506100ea6105da565b604051808260048111156100fa57fe5b60ff16815260200191505060405180910390f35b34801561011a57600080fd5b50610123610637565b604051808215151515815260200191505060405180910390f35b34801561014957600080fd5b50610152610648565b604051808e73ffffffffffffffffffffffffffffffffffffffff1673ffffffffffffffffffffffffffffffffffffffff1681526020018d73ffffffffffffffffffffffffffffffffffffffff1673ffffffffffffffffffffffffffffffffffffffff1681526020018c73ffffffffffffffffffffffffffffffffffffffff1673ffffffffffffffffffffffffffffffffffffffff1681526020018b73ffffffffffffffffffffffffffffffffffffffff1673ffffffffffffffffffffffffffffffffffffffff1681526020018a73ffffffffffffffffffffffffffffffffffffffff1673ffffffffffffffffffffffffffffffffffffffff1681526020018960001916600019168152602001886000191660001916815260200187815260200186815260200185815260200184600281111561028a57fe5b60ff1681526020018381526020018260048111156102a457fe5b60ff1681526020019d505050505050505050505050505060405180910390f35b3480156102d057600080fd5b506102d9610a25565b005b3480156102e757600080fd5b506102f0610aba565b6040518080602001828103825283818151815260200191508051906020019080838360005b83811015610330578082015181840152602081019050610315565b50505050905090810190601f16801561035d5780820380516001836020036101000a031916815260200191505b509250505060405180910390f35b34801561037757600080fd5b50610380610b5c565b604051808273ffffffffffffffffffffffffffffffffffffffff1673ffffffffffffffffffffffffffffffffffffffff16815260200191505060405180910390f35b3480156103ce57600080fd5b506103d7610c29565b604051808273ffffffffffffffffffffffffffffffffffffffff1673ffffffffffffffffffffffffffffffffffffffff16815260200191505060405180910390f35b34801561042557600080fd5b5061042e610c31565b604051808273ffffffffffffffffffffffffffffffffffffffff1673ffffffffffffffffffffffffffffffffffffffff16815260200191505060405180910390f35b34801561047c57600080fd5b50610485610c5b565b604051808273ffffffffffffffffffffffffffffffffffffffff1673ffffffffffffffffffffffffffffffffffffffff16815260200191505060405180910390f35b3480156104d357600080fd5b506104dc610c84565b604051808273ffffffffffffffffffffffffffffffffffffffff1673ffffffffffffffffffffffffffffffffffffffff16815260200191505060405180910390f35b34801561052a57600080fd5b5061055f600480360381019080803573ffffffffffffffffffffffffffffffffffffffff169060200190929190505050610ca9565b005b34801561056d57600080fd5b50610576610d6b565b6040518082815260200191505060405180910390f35b34801561059857600080fd5b506105c16004803603810190808035906020019092919080359060200190929190505050610e38565b005b3480156105cf57600080fd5b506105d8610f57565b005b6000600160048111156105e957fe5b600260149054906101000a900460ff16600481111561060457fe5b141561062157610612610637565b156106205760029050610634565b5b600260149054906101000a900460ff1690505b90565b600042610642610d6b565b10905090565b600080600080600080600080600080600080600080600160009054906101000a900473ffffffffffffffffffffffffffffffffffffffff1690508073ffffffffffffffffffffffffffffffffffffffff16631c32e7af6040518163ffffffff167c01000000000000000000000000000000000000000000000000000000000281526004016101c060405180830381600087803b1580156106e757600080fd5b505af11580156106fb573d6000803e3d6000fd5b505050506040513d6101c081101561071257600080fd5b810190808051906020019092919080519060200190929190805190602001909291908051906020019092919080519060200190929190805190602001909291908051906020019092919080519060200190929190805190602001909291908051906020019092919080519060200190929190805190602001909291908051906020019092919080519060200190929190505050909192939495969798999a9b9c50909192939495969798999a9b50909192939495969798999a509091929394959697989950909150905050809950819a50829b50839c50849d50859e50869f5050505050505050600160009054906101000a900473ffffffffffffffffffffffffffffffffffffffff169c50610826610c29565b9d508073ffffffffffffffffffffffffffffffffffffffff1663650d993b6040518163ffffffff167c0100000000000000000000000000000000000000000000000000000000028152600401602060405180830381600087803b15801561088c57600080fd5b505af11580156108a0573d6000803e3d6000fd5b505050506040513d60208110156108b657600080fd5b81019080805190602001909291905050509b508073ffffffffffffffffffffffffffffffffffffffff166360d704db6040518163ffffffff167c0100000000000000000000000000000000000000000000000000000000028152600401602060405180830381600087803b15801561092d57600080fd5b505af1158015610941573d6000803e3d6000fd5b505050506040513d602081101561095757600080fd5b81019080805190602001909291905050509a508073ffffffffffffffffffffffffffffffffffffffff1663565a2e2c6040518163ffffffff167c0100000000000000000000000000000000000000000000000000000000028152600401602060405180830381600087803b1580156109ce57600080fd5b505af11580156109e2573d6000803e3d6000fd5b505050506040513d60208110156109f857600080fd5b81019080805190602001909291905050509950610a136105da565b915050909192939495969798999a9b9c565b6000809054906101000a900473ffffffffffffffffffffffffffffffffffffffff1673ffffffffffffffffffffffffffffffffffffffff163373ffffffffffffffffffffffffffffffffffffffff16141515610a8057600080fd5b6000809054906101000a900473ffffffffffffffffffffffffffffffffffffffff1673ffffffffffffffffffffffffffffffffffffffff16ff5b606060038054600181600116156101000203166002900480601f016020809104026020016040519081016040528092919081815260200182805460018160011615610100020316600290048015610b525780601f10610b2757610100808354040283529160200191610b52565b820191906000526020600020905b815481529060010190602001808311610b3557829003601f168201915b5050505050905090565b600080600160009054906101000a900473ffffffffffffffffffffffffffffffffffffffff1690508073ffffffffffffffffffffffffffffffffffffffff1663565a2e2c6040518163ffffffff167c0100000000000000000000000000000000000000000000000000000000028152600401602060405180830381600087803b158015610be857600080fd5b505af1158015610bfc573d6000803e3d6000fd5b505050506040513d6020811015610c1257600080fd5b810190808051906020019092919050505091505090565b600030905090565b6000600160009054906101000a900473ffffffffffffffffffffffffffffffffffffffff16905090565b60008060009054906101000a900473ffffffffffffffffffffffffffffffffffffffff16905090565b6000809054906101000a900473ffffffffffffffffffffffffffffffffffffffff1681565b6000809054906101000a900473ffffffffffffffffffffffffffffffffffffffff1673ffffffffffffffffffffffffffffffffffffffff163373ffffffffffffffffffffffffffffffffffffffff16141515610d0457600080fd5b60008173ffffffffffffffffffffffffffffffffffffffff161415610d2857600080fd5b806000806101000a81548173ffffffffffffffffffffffffffffffffffffffff021916908373ffffffffffffffffffffffffffffffffffffffff16021790555050565b600080600160009054906101000a900473ffffffffffffffffffffffffffffffffffffffff1690508073ffffffffffffffffffffffffffffffffffffffff1663b13564886040518163ffffffff167c0100000000000000000000000000000000000000000000000000000000028152600401602060405180830381600087803b158015610df757600080fd5b505af1158015610e0b573d6000803e3d6000fd5b505050506040513d6020811015610e2157600080fd5b810190808051906020019092919050505091505090565b7f4d3c9d0e5ee7cb52dbdaaf1fe7b04b94f5d6406283723738ce2a85d0d536998a610e61610c29565b30338585610e6d6105da565b42604051808873ffffffffffffffffffffffffffffffffffffffff1673ffffffffffffffffffffffffffffffffffffffff1681526020018773ffffffffffffffffffffffffffffffffffffffff1673ffffffffffffffffffffffffffffffffffffffff1681526020018673ffffffffffffffffffffffffffffffffffffffff1673ffffffffffffffffffffffffffffffffffffffff16815260200185815260200184815260200180602001846004811115610f2457fe5b60ff1681526020018381526020018281038252600081526020016020019850505050505050505060405180910390a15050565b6003600260146101000a81548160ff02191690836004811115610f7657fe5b02179055507f6518c1da158fee6a2676b0f54a238f60b8607b47ed05a8ac7108a7a866c25fdd600160009054906101000a900473ffffffffffffffffffffffffffffffffffffffff16610fc7610c29565b33600260149054906101000a900460ff1642604051808673ffffffffffffffffffffffffffffffffffffffff1673ffffffffffffffffffffffffffffffffffffffff1681526020018573ffffffffffffffffffffffffffffffffffffffff1673ffffffffffffffffffffffffffffffffffffffff1681526020018473ffffffffffffffffffffffffffffffffffffffff1673ffffffffffffffffffffffffffffffffffffffff16815260200183600481111561107f57fe5b60ff1681526020018281526020019550505050505060405180910390a15600a165627a7a723058200b6db2ac432c9828834341ce0893e200831dc667f77cfd4be5cd5b1b79030dc50029a165627a7a723058204bd1e0694ca317ae7d0f8a7935e2af0852c0a95ccd1df0a65898afbbca71b8aa0029",
  "source": "pragma solidity ^0.4.0;\n\n\nimport \"./GuaranteeRequestExtender.sol\";\n\ncontract ChangeGuaranteeRequest is GuaranteeRequestExtender\n{\n    string public version = \"1.00\";\n\n    uint  amount;\n    uint  endDate;\n\n//    bytes  theproposalIPFSHash;\n\n    address public  changeRequestGuaranteeAdr;\n\n    event ChangeGuaranteeRequestCreated (address guaranteeExtender,uint requestAmount, uint requestEndDate,RequestState   curentstatus,uint timestamp);\n\n    function ChangeGuaranteeRequest(address guaranteeExtender,uint requestAmount, uint requestEndDate){\n        DigitalGuaranteeBNHP ge=DigitalGuaranteeBNHP(guaranteeExtender);\n\n        changeRequestGuaranteeAdr=ge.getGuaranteeRequest();\n        amount=requestAmount;\n        endDate=requestEndDate;\n        status=RequestState.waitingtobank;\n\n\n        changeOwner(GuaranteeRequestExtender(changeRequestGuaranteeAdr).getCustomer());\n        ChangeGuaranteeRequestCreated(guaranteeExtender, requestAmount,  requestEndDate,status,now);\n    }\n\n    function getId() constant public returns (address _contract_id)\n    {\n        return this;\n    }\n\n    function getAmount() constant public returns (uint )\n    {\n        return amount;\n    }\n\n\n    function getBank() constant public returns (address)\n    {\n        return GuaranteeRequestExtender(changeRequestGuaranteeAdr).getBank();\n    }\n    function getBeneficiary() constant public returns (address)\n    {\n        return GuaranteeRequestExtender(changeRequestGuaranteeAdr).getBeneficiary();\n\n    }\n\n    function getEndDate() constant public returns (uint)\n    {\n        return endDate;\n    }\n\n\n    function getGuaranteeRequestData() constant public returns (address _contract_id,address _customer,address _bank, address _beneficiary,\n    bytes32 _full_name ,bytes32 _purpose,uint _amount,uint _startDate,uint _endDate,IndexType _indexType,uint _indexDate,RequestState _status ,bool _isChangeGuarantee,address _changedGuarantee)\n    {\n\n        ( , , ,  , _full_name, _purpose , , _startDate, , _indexType, _indexDate, , , ) =GuaranteeRequestExtender(changeRequestGuaranteeAdr).getGuaranteeRequestData();\n\n        _customer=getCustomer();\n        _beneficiary=getBeneficiary();\n        _bank=getBank();\n        _contract_id=getId();\n        _amount=amount;\n        _status=status;\n        _endDate=endDate;\n        _isChangeGuarantee=true;\n        _changedGuarantee=changeRequestGuaranteeAdr;\n\n    }\n\n\n\n    function getProposalIPFSHash() constant public returns (bytes _roposalIPFSHash)\n    {\n//            _roposalIPFSHash=GuaranteeRequestExtender(getChangeRequestGuarantee()).getProposalIPFSHash();\n        return \"\";\n\n    }\n\n\n\n    function getChangeRequestGuarantee() constant public returns (address )\n    {\n        return changeRequestGuaranteeAdr;\n    }\n\n    function isValid() constant public returns (bool) {\n\n        return ( getBank()!= address(0) && getBeneficiary()!= address(0));\n    }\n\n}\n",
  "sourcePath": "/Users/irachka/DimaPOCProject/guarantees/contracts/ChangeGuaranteeRequest.sol",
  "compiler": {
    "name": "solc",
    "version": "0.4.23+commit.124ca40d.Emscripten.clang"
  },
  "schemaVersion": "2.0.0",
  "updatedAt": "2018-04-25T10:53:46.705Z"
}