{
  "contractName": "GuaranteeRequest",
  "abi": [
    {
      "constant": false,
      "inputs": [
        {
          "name": "comment",
          "type": "string"
        }
      ],
      "name": "reject",
      "outputs": [
        {
          "name": "result",
          "type": "bool"
        }
      ],
      "payable": false,
      "stateMutability": "nonpayable",
      "type": "function"
    },
    {
      "constant": false,
      "inputs": [
        {
          "name": "_guaranteeIPFSHash",
          "type": "bytes"
        }
      ],
      "name": "signComplite",
      "outputs": [
        {
          "name": "",
          "type": "address"
        }
      ],
      "payable": false,
      "stateMutability": "nonpayable",
      "type": "function"
    },
    {
      "constant": false,
      "inputs": [],
      "name": "accept",
      "outputs": [
        {
          "name": "result",
          "type": "bool"
        }
      ],
      "payable": false,
      "stateMutability": "nonpayable",
      "type": "function"
    },
    {
      "constant": false,
      "inputs": [
        {
          "name": "_newamount",
          "type": "uint256"
        },
        {
          "name": "_newendDate",
          "type": "uint256"
        }
      ],
      "name": "changeRequested",
      "outputs": [],
      "payable": false,
      "stateMutability": "nonpayable",
      "type": "function"
    },
    {
      "constant": true,
      "inputs": [],
      "name": "isExpired",
      "outputs": [
        {
          "name": "",
          "type": "bool"
        }
      ],
      "payable": false,
      "stateMutability": "view",
      "type": "function"
    },
    {
      "constant": false,
      "inputs": [],
      "name": "getGuaranteeAddress",
      "outputs": [
        {
          "name": "",
          "type": "address"
        }
      ],
      "payable": false,
      "stateMutability": "nonpayable",
      "type": "function"
    },
    {
      "constant": false,
      "inputs": [],
      "name": "close",
      "outputs": [],
      "payable": false,
      "stateMutability": "nonpayable",
      "type": "function"
    },
    {
      "constant": false,
      "inputs": [],
      "name": "setRegulator",
      "outputs": [],
      "payable": false,
      "stateMutability": "nonpayable",
      "type": "function"
    },
    {
      "constant": false,
      "inputs": [
        {
          "name": "comment",
          "type": "string"
        }
      ],
      "name": "withdrawal",
      "outputs": [
        {
          "name": "result",
          "type": "bool"
        }
      ],
      "payable": false,
      "stateMutability": "nonpayable",
      "type": "function"
    },
    {
      "constant": true,
      "inputs": [],
      "name": "version",
      "outputs": [
        {
          "name": "",
          "type": "string"
        }
      ],
      "payable": false,
      "stateMutability": "view",
      "type": "function"
    },
    {
      "constant": true,
      "inputs": [],
      "name": "getCustomer",
      "outputs": [
        {
          "name": "",
          "type": "address"
        }
      ],
      "payable": false,
      "stateMutability": "view",
      "type": "function"
    },
    {
      "constant": true,
      "inputs": [],
      "name": "guaranteel",
      "outputs": [
        {
          "name": "",
          "type": "address"
        }
      ],
      "payable": false,
      "stateMutability": "view",
      "type": "function"
    },
    {
      "constant": true,
      "inputs": [],
      "name": "getOwner",
      "outputs": [
        {
          "name": "",
          "type": "address"
        }
      ],
      "payable": false,
      "stateMutability": "view",
      "type": "function"
    },
    {
      "constant": true,
      "inputs": [],
      "name": "owner",
      "outputs": [
        {
          "name": "",
          "type": "address"
        }
      ],
      "payable": false,
      "stateMutability": "view",
      "type": "function"
    },
    {
      "constant": true,
      "inputs": [],
      "name": "getRequestState",
      "outputs": [
        {
          "name": "",
          "type": "uint8"
        }
      ],
      "payable": false,
      "stateMutability": "view",
      "type": "function"
    },
    {
      "constant": false,
      "inputs": [
        {
          "name": "_newOwner",
          "type": "address"
        }
      ],
      "name": "changeOwner",
      "outputs": [],
      "payable": false,
      "stateMutability": "nonpayable",
      "type": "function"
    },
    {
      "constant": true,
      "inputs": [],
      "name": "isValid",
      "outputs": [
        {
          "name": "",
          "type": "bool"
        }
      ],
      "payable": false,
      "stateMutability": "view",
      "type": "function"
    },
    {
      "constant": false,
      "inputs": [],
      "name": "terminateGuarantee",
      "outputs": [],
      "payable": false,
      "stateMutability": "nonpayable",
      "type": "function"
    },
    {
      "constant": false,
      "inputs": [],
      "name": "isChangeRequest",
      "outputs": [
        {
          "name": "",
          "type": "bool"
        }
      ],
      "payable": false,
      "stateMutability": "nonpayable",
      "type": "function"
    },
    {
      "constant": false,
      "inputs": [
        {
          "name": "comment",
          "type": "string"
        }
      ],
      "name": "submit",
      "outputs": [
        {
          "name": "result",
          "type": "bool"
        }
      ],
      "payable": false,
      "stateMutability": "nonpayable",
      "type": "function"
    },
    {
      "constant": true,
      "inputs": [],
      "name": "addresses",
      "outputs": [
        {
          "name": "bank",
          "type": "address"
        },
        {
          "name": "beneficiary",
          "type": "address"
        }
      ],
      "payable": false,
      "stateMutability": "view",
      "type": "function"
    },
    {
      "constant": true,
      "inputs": [],
      "name": "regulator",
      "outputs": [
        {
          "name": "",
          "type": "address"
        }
      ],
      "payable": false,
      "stateMutability": "view",
      "type": "function"
    },
    {
      "constant": false,
      "inputs": [
        {
          "name": "comment",
          "type": "string"
        },
        {
          "name": "_newState",
          "type": "uint8"
        }
      ],
      "name": "bankStateChange",
      "outputs": [
        {
          "name": "result",
          "type": "bool"
        }
      ],
      "payable": false,
      "stateMutability": "nonpayable",
      "type": "function"
    },
    {
      "constant": false,
      "inputs": [],
      "name": "getRegulator",
      "outputs": [
        {
          "name": "",
          "type": "address"
        }
      ],
      "payable": false,
      "stateMutability": "nonpayable",
      "type": "function"
    },
    {
      "inputs": [
        {
          "name": "_bank",
          "type": "address"
        },
        {
          "name": "_beneficiary",
          "type": "address"
        },
        {
          "name": "_full_name",
          "type": "bytes32"
        },
        {
          "name": "_purpose",
          "type": "bytes32"
        },
        {
          "name": "_amount",
          "type": "uint256"
        },
        {
          "name": "_startDate",
          "type": "uint256"
        },
        {
          "name": "_endDate",
          "type": "uint256"
        },
        {
          "name": "_indexType",
          "type": "uint8"
        },
        {
          "name": "_indexDate",
          "type": "uint256"
        },
        {
          "name": "_proposalIPFSHash",
          "type": "bytes"
        }
      ],
      "payable": false,
      "stateMutability": "nonpayable",
      "type": "constructor"
    },
    {
      "anonymous": false,
      "inputs": [
        {
          "indexed": true,
          "name": "requestId",
          "type": "address"
        },
        {
          "indexed": true,
          "name": "customer",
          "type": "address"
        },
        {
          "indexed": true,
          "name": "bank",
          "type": "address"
        },
        {
          "indexed": false,
          "name": "beneficiary",
          "type": "address"
        },
        {
          "indexed": false,
          "name": "curentstatus",
          "type": "uint8"
        },
        {
          "indexed": false,
          "name": "guarantyPurpose",
          "type": "bytes32"
        },
        {
          "indexed": false,
          "name": "requestAmount",
          "type": "uint256"
        },
        {
          "indexed": false,
          "name": "requestStartDate",
          "type": "uint256"
        },
        {
          "indexed": false,
          "name": "requestEndDate",
          "type": "uint256"
        },
        {
          "indexed": false,
          "name": "requestIndexType",
          "type": "uint8"
        },
        {
          "indexed": false,
          "name": "requestIndexDate",
          "type": "uint256"
        },
        {
          "indexed": false,
          "name": "timestamp",
          "type": "uint256"
        },
        {
          "indexed": false,
          "name": "proposalIPFSHash",
          "type": "bytes"
        }
      ],
      "name": "GuaranteeRequestCreated",
      "type": "event"
    },
    {
      "anonymous": false,
      "inputs": [
        {
          "indexed": true,
          "name": "requestId",
          "type": "address"
        },
        {
          "indexed": true,
          "name": "guarantieId",
          "type": "address"
        },
        {
          "indexed": false,
          "name": "newamount",
          "type": "uint256"
        },
        {
          "indexed": false,
          "name": "newendDate",
          "type": "uint256"
        },
        {
          "indexed": false,
          "name": "curentstatus",
          "type": "uint8"
        },
        {
          "indexed": false,
          "name": "timestamp",
          "type": "uint256"
        }
      ],
      "name": "GuarantieChangeRequested",
      "type": "event"
    },
    {
      "anonymous": false,
      "inputs": [
        {
          "indexed": true,
          "name": "requestId",
          "type": "address"
        },
        {
          "indexed": true,
          "name": "msgSender",
          "type": "address"
        },
        {
          "indexed": false,
          "name": "curentstatus",
          "type": "uint8"
        },
        {
          "indexed": false,
          "name": "commentline",
          "type": "string"
        },
        {
          "indexed": false,
          "name": "timestamp",
          "type": "uint256"
        }
      ],
      "name": "Submitted",
      "type": "event"
    },
    {
      "anonymous": false,
      "inputs": [
        {
          "indexed": true,
          "name": "requestId",
          "type": "address"
        },
        {
          "indexed": true,
          "name": "msgSender",
          "type": "address"
        },
        {
          "indexed": false,
          "name": "curentstatus",
          "type": "uint8"
        },
        {
          "indexed": false,
          "name": "commentline",
          "type": "string"
        },
        {
          "indexed": false,
          "name": "timestamp",
          "type": "uint256"
        }
      ],
      "name": "Withdrawal",
      "type": "event"
    },
    {
      "anonymous": false,
      "inputs": [
        {
          "indexed": true,
          "name": "requestId",
          "type": "address"
        },
        {
          "indexed": true,
          "name": "msgSender",
          "type": "address"
        },
        {
          "indexed": false,
          "name": "curentstatus",
          "type": "uint8"
        },
        {
          "indexed": false,
          "name": "timestamp",
          "type": "uint256"
        }
      ],
      "name": "Termination",
      "type": "event"
    },
    {
      "anonymous": false,
      "inputs": [
        {
          "indexed": true,
          "name": "requestId",
          "type": "address"
        },
        {
          "indexed": true,
          "name": "msgSender",
          "type": "address"
        },
        {
          "indexed": false,
          "name": "curentstatus",
          "type": "uint8"
        },
        {
          "indexed": false,
          "name": "commentline",
          "type": "string"
        },
        {
          "indexed": false,
          "name": "timestamp",
          "type": "uint256"
        }
      ],
      "name": "Rejected",
      "type": "event"
    },
    {
      "anonymous": false,
      "inputs": [
        {
          "indexed": true,
          "name": "requestId",
          "type": "address"
        },
        {
          "indexed": true,
          "name": "msgSender",
          "type": "address"
        },
        {
          "indexed": false,
          "name": "curentstatus",
          "type": "uint8"
        },
        {
          "indexed": false,
          "name": "commentline",
          "type": "string"
        },
        {
          "indexed": false,
          "name": "timestamp",
          "type": "uint256"
        }
      ],
      "name": "BankStateChange",
      "type": "event"
    },
    {
      "anonymous": false,
      "inputs": [
        {
          "indexed": true,
          "name": "requestId",
          "type": "address"
        },
        {
          "indexed": true,
          "name": "msgSender",
          "type": "address"
        },
        {
          "indexed": false,
          "name": "curentstatus",
          "type": "uint8"
        },
        {
          "indexed": false,
          "name": "timestamp",
          "type": "uint256"
        }
      ],
      "name": "Accepted",
      "type": "event"
    },
    {
      "anonymous": false,
      "inputs": [
        {
          "indexed": true,
          "name": "requestId",
          "type": "address"
        },
        {
          "indexed": true,
          "name": "guarantieId",
          "type": "address"
        },
        {
          "indexed": false,
          "name": "curentstatus",
          "type": "uint8"
        },
        {
          "indexed": false,
          "name": "timestamp",
          "type": "uint256"
        }
      ],
      "name": "GuarantieSigned",
      "type": "event"
    },
    {
      "anonymous": false,
      "inputs": [
        {
          "indexed": true,
          "name": "requestId",
          "type": "address"
        },
        {
          "indexed": true,
          "name": "guarantieId",
          "type": "address"
        },
        {
          "indexed": false,
          "name": "curentstatus",
          "type": "uint8"
        },
        {
          "indexed": false,
          "name": "timestamp",
          "type": "uint256"
        }
      ],
      "name": "GuarantieChangeSigned",
      "type": "event"
    },
    {
      "constant": true,
      "inputs": [],
      "name": "getId",
      "outputs": [
        {
          "name": "_contract_id",
          "type": "address"
        }
      ],
      "payable": false,
      "stateMutability": "view",
      "type": "function"
    },
    {
      "constant": true,
      "inputs": [],
      "name": "getBank",
      "outputs": [
        {
          "name": "_bank",
          "type": "address"
        }
      ],
      "payable": false,
      "stateMutability": "view",
      "type": "function"
    },
    {
      "constant": true,
      "inputs": [],
      "name": "getBeneficiary",
      "outputs": [
        {
          "name": "_beneficiary",
          "type": "address"
        }
      ],
      "payable": false,
      "stateMutability": "view",
      "type": "function"
    },
    {
      "constant": true,
      "inputs": [],
      "name": "getEndDate",
      "outputs": [
        {
          "name": "_date",
          "type": "uint256"
        }
      ],
      "payable": false,
      "stateMutability": "view",
      "type": "function"
    },
    {
      "constant": true,
      "inputs": [],
      "name": "getGuaranteeRequestData",
      "outputs": [
        {
          "name": "_contract_id",
          "type": "address"
        },
        {
          "name": "_customer",
          "type": "address"
        },
        {
          "name": "_bank",
          "type": "address"
        },
        {
          "name": "_beneficiary",
          "type": "address"
        },
        {
          "name": "_full_name",
          "type": "bytes32"
        },
        {
          "name": "_purpose",
          "type": "bytes32"
        },
        {
          "name": "_amount",
          "type": "uint256"
        },
        {
          "name": "_startDate",
          "type": "uint256"
        },
        {
          "name": "_endDate",
          "type": "uint256"
        },
        {
          "name": "_indexType",
          "type": "uint8"
        },
        {
          "name": "_indexDate",
          "type": "uint256"
        },
        {
          "name": "_status",
          "type": "uint8"
        },
        {
          "name": "_isChangeGuarantee",
          "type": "bool"
        },
        {
          "name": "_changedGuarantee",
          "type": "address"
        }
      ],
      "payable": false,
      "stateMutability": "view",
      "type": "function"
    },
    {
      "constant": true,
      "inputs": [],
      "name": "getProposalIPFSHash",
      "outputs": [
        {
          "name": "",
          "type": "bytes"
        }
      ],
      "payable": false,
      "stateMutability": "view",
      "type": "function"
    },
    {
      "constant": true,
      "inputs": [],
      "name": "getChangeRequestGuarantee",
      "outputs": [
        {
          "name": "",
          "type": "address"
        }
      ],
      "payable": false,
      "stateMutability": "view",
      "type": "function"
    }
  ],
  "bytecode": "0x6080604052336000806101000a81548173ffffffffffffffffffffffffffffffffffffffff021916908373ffffffffffffffffffffffffffffffffffffffff1602179055506040805190810160405280600481526020017f312e303000000000000000000000000000000000000000000000000000000000815250600390805190602001906200009192919062000437565b503480156200009f57600080fd5b5060405162003c6838038062003c688339810180604052810190808051906020019092919080519060200190929190805190602001909291908051906020019092919080519060200190929190805190602001909291908051906020019092919080519060200190929190805190602001909291908051820192919050505089600460000160006101000a81548173ffffffffffffffffffffffffffffffffffffffff021916908373ffffffffffffffffffffffffffffffffffffffff16021790555088600460010160006101000a81548173ffffffffffffffffffffffffffffffffffffffff021916908373ffffffffffffffffffffffffffffffffffffffff16021790555086600781600019169055508560088190555087600681600019169055508460098190555083600a8190555082600b60006101000a81548160ff02191690836002811115620001f057fe5b021790555081600c8190555060008060146101000a81548160ff0219169083600a8111156200021b57fe5b021790555080600d908051906020019062000238929190620004be565b508973ffffffffffffffffffffffffffffffffffffffff166200026962000406640100000000026401000000009004565b73ffffffffffffffffffffffffffffffffffffffff16620002986200042f640100000000026401000000009004565b73ffffffffffffffffffffffffffffffffffffffff167f2fa3897c0f43ce3bb4755a179f18097a212d0dd14a0b2448aa4e511517dc973b8c600060149054906101000a900460ff168c8c8c8c8c8c428d604051808b73ffffffffffffffffffffffffffffffffffffffff1673ffffffffffffffffffffffffffffffffffffffff1681526020018a600a8111156200032b57fe5b60ff16815260200189600019166000191681526020018881526020018781526020018681526020018560028111156200036057fe5b60ff16815260200184815260200183815260200180602001828103825283818151815260200191508051906020019080838360005b83811015620003b257808201518184015260208101905062000395565b50505050905090810190601f168015620003e05780820380516001836020036101000a031916815260200191505b509b50505050505050505050505060405180910390a4505050505050505050506200056d565b60008060009054906101000a900473ffffffffffffffffffffffffffffffffffffffff16905090565b600030905090565b828054600181600116156101000203166002900490600052602060002090601f016020900481019282601f106200047a57805160ff1916838001178555620004ab565b82800160010185558215620004ab579182015b82811115620004aa5782518255916020019190600101906200048d565b5b509050620004ba919062000545565b5090565b828054600181600116156101000203166002900490600052602060002090601f016020900481019282601f106200050157805160ff191683800117855562000532565b8280016001018555821562000532579182015b828111156200053157825182559160200191906001019062000514565b5b50905062000541919062000545565b5090565b6200056a91905b80821115620005665760008160009055506001016200054c565b5090565b90565b6136eb806200057d6000396000f300608060405260043610620001ab576000357c0100000000000000000000000000000000000000000000000000000000900463ffffffff1680631c32e7af14620001b0578063201c5cc114620003475780632259515b14620003cb5780632852b71c14620004775780632beba68b14620004a95780632f13b60c14620004e35780633f40d18f146200051557806343d726d6146200056f5780634a0b20aa14620005895780634a51c31c14620005a357806354fd4d501462000627578063565a2e2c14620006bd5780635d1ca631146200071757806360d704db1462000771578063650d993b14620007cb5780636f00817e146200082557806379d259f4146200087f578063893d20e814620008d95780638da5cb5b1462000933578063a39152f2146200098d578063a6f9dae114620009ca578063b13564881462000a10578063bb5d40eb1462000a3e578063c3287ea71462000a70578063c700c70d1462000b06578063cded37371462000b20578063d99a8dc31462000b52578063da0321cd1462000bd6578063dd8fee141462000c63578063f40bd94a1462000cbd578063f7e317f41462000d4e575b600080fd5b348015620001bd57600080fd5b50620001c862000da8565b604051808f73ffffffffffffffffffffffffffffffffffffffff1673ffffffffffffffffffffffffffffffffffffffff1681526020018e73ffffffffffffffffffffffffffffffffffffffff1673ffffffffffffffffffffffffffffffffffffffff1681526020018d73ffffffffffffffffffffffffffffffffffffffff1673ffffffffffffffffffffffffffffffffffffffff1681526020018c73ffffffffffffffffffffffffffffffffffffffff1673ffffffffffffffffffffffffffffffffffffffff1681526020018b600019166000191681526020018a60001916600019168152602001898152602001888152602001878152602001866002811115620002cf57fe5b60ff16815260200185815260200184600a811115620002ea57fe5b60ff168152602001831515151581526020018273ffffffffffffffffffffffffffffffffffffffff1673ffffffffffffffffffffffffffffffffffffffff1681526020019e50505050505050505050505050505060405180910390f35b3480156200035457600080fd5b50620003b1600480360381019080803590602001908201803590602001908080601f016020809104026020016040519081016040528093929190818152602001838380828437820191505050505050919291929050505062000e57565b604051808215151515815260200191505060405180910390f35b348015620003d857600080fd5b5062000435600480360381019080803590602001908201803590602001908080601f016020809104026020016040519081016040528093929190818152602001838380828437820191505050505050919291929050505062000fc3565b604051808273ffffffffffffffffffffffffffffffffffffffff1673ffffffffffffffffffffffffffffffffffffffff16815260200191505060405180910390f35b3480156200048457600080fd5b506200048f62001337565b604051808215151515815260200191505060405180910390f35b348015620004b657600080fd5b50620004e160048036038101908080359060200190929190803590602001909291905050506200151b565b005b348015620004f057600080fd5b50620004fb6200160a565b604051808215151515815260200191505060405180910390f35b3480156200052257600080fd5b506200052d6200161d565b604051808273ffffffffffffffffffffffffffffffffffffffff1673ffffffffffffffffffffffffffffffffffffffff16815260200191505060405180910390f35b3480156200057c57600080fd5b506200058762001647565b005b3480156200059657600080fd5b50620005a1620016dd565b005b348015620005b057600080fd5b506200060d600480360381019080803590602001908201803590602001908080601f016020809104026020016040519081016040528093929190818152602001838380828437820191505050505050919291929050505062001720565b604051808215151515815260200191505060405180910390f35b3480156200063457600080fd5b506200063f620018d0565b6040518080602001828103825283818151815260200191508051906020019080838360005b838110156200068157808201518184015260208101905062000664565b50505050905090810190601f168015620006af5780820380516001836020036101000a031916815260200191505b509250505060405180910390f35b348015620006ca57600080fd5b50620006d562001972565b604051808273ffffffffffffffffffffffffffffffffffffffff1673ffffffffffffffffffffffffffffffffffffffff16815260200191505060405180910390f35b3480156200072457600080fd5b506200072f6200199f565b604051808273ffffffffffffffffffffffffffffffffffffffff1673ffffffffffffffffffffffffffffffffffffffff16815260200191505060405180910390f35b3480156200077e57600080fd5b5062000789620019a7565b604051808273ffffffffffffffffffffffffffffffffffffffff1673ffffffffffffffffffffffffffffffffffffffff16815260200191505060405180910390f35b348015620007d857600080fd5b50620007e3620019d4565b604051808273ffffffffffffffffffffffffffffffffffffffff1673ffffffffffffffffffffffffffffffffffffffff16815260200191505060405180910390f35b3480156200083257600080fd5b506200083d620019fd565b604051808273ffffffffffffffffffffffffffffffffffffffff1673ffffffffffffffffffffffffffffffffffffffff16815260200191505060405180910390f35b3480156200088c57600080fd5b506200089762001a05565b604051808273ffffffffffffffffffffffffffffffffffffffff1673ffffffffffffffffffffffffffffffffffffffff16815260200191505060405180910390f35b348015620008e657600080fd5b50620008f162001a2b565b604051808273ffffffffffffffffffffffffffffffffffffffff1673ffffffffffffffffffffffffffffffffffffffff16815260200191505060405180910390f35b3480156200094057600080fd5b506200094b62001a54565b604051808273ffffffffffffffffffffffffffffffffffffffff1673ffffffffffffffffffffffffffffffffffffffff16815260200191505060405180910390f35b3480156200099a57600080fd5b50620009a562001a79565b6040518082600a811115620009b657fe5b60ff16815260200191505060405180910390f35b348015620009d757600080fd5b5062000a0e600480360381019080803573ffffffffffffffffffffffffffffffffffffffff16906020019092919050505062001a8f565b005b34801562000a1d57600080fd5b5062000a2862001b53565b6040518082815260200191505060405180910390f35b34801562000a4b57600080fd5b5062000a5662001b5d565b604051808215151515815260200191505060405180910390f35b34801562000a7d57600080fd5b5062000a8862001be0565b6040518080602001828103825283818151815260200191508051906020019080838360005b8381101562000aca57808201518184015260208101905062000aad565b50505050905090810190601f16801562000af85780820380516001836020036101000a031916815260200191505b509250505060405180910390f35b34801562000b1357600080fd5b5062000b1e62001c86565b005b34801562000b2d57600080fd5b5062000b3862001d78565b604051808215151515815260200191505060405180910390f35b34801562000b5f57600080fd5b5062000bbc600480360381019080803590602001908201803590602001908080601f016020809104026020016040519081016040528093929190818152602001838380828437820191505050505050919291929050505062001db8565b604051808215151515815260200191505060405180910390f35b34801562000be357600080fd5b5062000bee62001f67565b604051808373ffffffffffffffffffffffffffffffffffffffff1673ffffffffffffffffffffffffffffffffffffffff1681526020018273ffffffffffffffffffffffffffffffffffffffff1673ffffffffffffffffffffffffffffffffffffffff1681526020019250505060405180910390f35b34801562000c7057600080fd5b5062000c7b62001fb9565b604051808273ffffffffffffffffffffffffffffffffffffffff1673ffffffffffffffffffffffffffffffffffffffff16815260200191505060405180910390f35b34801562000cca57600080fd5b5062000d34600480360381019080803590602001908201803590602001908080601f0160208091040260200160405190810160405280939291908181526020018383808284378201915050505050509192919290803560ff16906020019092919050505062001fdf565b604051808215151515815260200191505060405180910390f35b34801562000d5b57600080fd5b5062000d666200221f565b604051808273ffffffffffffffffffffffffffffffffffffffff1673ffffffffffffffffffffffffffffffffffffffff16815260200191505060405180910390f35b60008060008060008060008060008060008060008062000dc76200199f565b9d5062000dd3620019d4565b9c5062000ddf620019a7565b9b5062000deb62001972565b9a506007549850600854975060065499506009549650600a549550600b60009054906101000a900460ff169450600c549350600060149054906101000a900460ff16925062000e3962001d78565b915062000e45620019fd565b9050909192939495969798999a9b9c9d565b60006006600a81111562000e6757fe5b600060149054906101000a900460ff16600a81111562000e8357fe5b1415151562000e9157600080fd5b6008600060146101000a81548160ff0219169083600a81111562000eb157fe5b02179055503373ffffffffffffffffffffffffffffffffffffffff1662000ed76200199f565b73ffffffffffffffffffffffffffffffffffffffff167feb463c1ffd4e2e84feaf7746bb60dd6b9471dbbf9edd2b020a53869f796cd78d600060149054906101000a900460ff1685426040518084600a81111562000f3157fe5b60ff16815260200180602001838152602001828103825284818151815260200191508051906020019080838360005b8381101562000f7d57808201518184015260208101905062000f60565b50505050905090810190601f16801562000fab5780820380516001836020036101000a031916815260200191505b5094505050505060405180910390a360019050919050565b6000806006600a81111562000fd457fe5b62000fde62001a79565b600a81111562000fea57fe5b14801562000fff575062000ffe8362002249565b5b8015620010405750620010116200221f565b73ffffffffffffffffffffffffffffffffffffffff163373ffffffffffffffffffffffffffffffffffffffff16145b15156200104c57600080fd5b30620010576200221f565b846200106262002269565b808473ffffffffffffffffffffffffffffffffffffffff1673ffffffffffffffffffffffffffffffffffffffff1681526020018373ffffffffffffffffffffffffffffffffffffffff1673ffffffffffffffffffffffffffffffffffffffff16815260200180602001828103825283818151815260200191508051906020019080838360005b8381101562001105578082015181840152602081019050620010e8565b50505050905090810190601f168015620011335780820380516001836020036101000a031916815260200191505b50945050505050604051809103906000f08015801562001157573d6000803e3d6000fd5b50905080600260006101000a81548173ffffffffffffffffffffffffffffffffffffffff021916908373ffffffffffffffffffffffffffffffffffffffff160217905550620011a562001d78565b156200125e57600260009054906101000a900473ffffffffffffffffffffffffffffffffffffffff1673ffffffffffffffffffffffffffffffffffffffff163073ffffffffffffffffffffffffffffffffffffffff167f5cf2a7101a7acad9a26aabd8c2b95e616fa3c5c8e93e3f30419151a370f4ef34600060149054906101000a900460ff16426040518083600a8111156200123e57fe5b60ff1681526020018281526020019250505060405180910390a36200130c565b600260009054906101000a900473ffffffffffffffffffffffffffffffffffffffff1673ffffffffffffffffffffffffffffffffffffffff163073ffffffffffffffffffffffffffffffffffffffff167f9f3a4dc4a2920969299d37a1a55dc00ce978fe5e0ac8b2a4d87fbe66fd4d283b600060149054906101000a900460ff16426040518083600a811115620012f157fe5b60ff1681526020018281526020019250505060405180910390a35b600260009054906101000a900473ffffffffffffffffffffffffffffffffffffffff16915050919050565b6000600160009054906101000a900473ffffffffffffffffffffffffffffffffffffffff1673ffffffffffffffffffffffffffffffffffffffff163373ffffffffffffffffffffffffffffffffffffffff161415156200139657600080fd5b6001600a811115620013a457fe5b600060149054906101000a900460ff16600a811115620013c057fe5b1480620013f457506002600a811115620013d657fe5b600060149054906101000a900460ff16600a811115620013f257fe5b145b80156200144f5750600073ffffffffffffffffffffffffffffffffffffffff16600260009054906101000a900473ffffffffffffffffffffffffffffffffffffffff1673ffffffffffffffffffffffffffffffffffffffff16145b15156200145b57600080fd5b6006600060146101000a81548160ff0219169083600a8111156200147b57fe5b02179055503373ffffffffffffffffffffffffffffffffffffffff16620014a16200199f565b73ffffffffffffffffffffffffffffffffffffffff167f89e5f8cd748cff430d9087f4e0e0ef20acd32d0e6686df96c89d726e35e68ab5600060149054906101000a900460ff16426040518083600a811115620014fa57fe5b60ff1681526020018281526020019250505060405180910390a36001905090565b6007600060146101000a81548160ff0219169083600a8111156200153b57fe5b0217905550600260009054906101000a900473ffffffffffffffffffffffffffffffffffffffff1673ffffffffffffffffffffffffffffffffffffffff16620015836200199f565b73ffffffffffffffffffffffffffffffffffffffff167fb42cc91db936a84b66eef34e5d2852b519032c7921629568c4589c97396a5ad28484600060149054906101000a900460ff16426040518085815260200184815260200183600a811115620015ea57fe5b60ff16815260200182815260200194505050505060405180910390a35050565b6000426200161762001b53565b10905090565b6000600260009054906101000a900473ffffffffffffffffffffffffffffffffffffffff16905090565b6000809054906101000a900473ffffffffffffffffffffffffffffffffffffffff1673ffffffffffffffffffffffffffffffffffffffff163373ffffffffffffffffffffffffffffffffffffffff16141515620016a357600080fd5b6000809054906101000a900473ffffffffffffffffffffffffffffffffffffffff1673ffffffffffffffffffffffffffffffffffffffff16ff5b33600160006101000a81548173ffffffffffffffffffffffffffffffffffffffff021916908373ffffffffffffffffffffffffffffffffffffffff160217905550565b60006200172c620019d4565b73ffffffffffffffffffffffffffffffffffffffff163373ffffffffffffffffffffffffffffffffffffffff161415156200176657600080fd5b6006600a8111156200177457fe5b600060149054906101000a900460ff16600a8111156200179057fe5b141515156200179e57600080fd5b6005600060146101000a81548160ff0219169083600a811115620017be57fe5b02179055503373ffffffffffffffffffffffffffffffffffffffff16620017e46200199f565b73ffffffffffffffffffffffffffffffffffffffff167fdc36f94f1c16d61fe684e365e0c2a72b23aebb7adedf5aaa22fab76156a7efe7600060149054906101000a900460ff1685426040518084600a8111156200183e57fe5b60ff16815260200180602001838152602001828103825284818151815260200191508051906020019080838360005b838110156200188a5780820151818401526020810190506200186d565b50505050905090810190601f168015620018b85780820380516001836020036101000a031916815260200191505b5094505050505060405180910390a360019050919050565b60038054600181600116156101000203166002900480601f0160208091040260200160405190810160405280929190818152602001828054600181600116156101000203166002900480156200196a5780601f106200193e576101008083540402835291602001916200196a565b820191906000526020600020905b8154815290600101906020018083116200194c57829003601f168201915b505050505081565b6000600460010160009054906101000a900473ffffffffffffffffffffffffffffffffffffffff16905090565b600030905090565b6000600460000160009054906101000a900473ffffffffffffffffffffffffffffffffffffffff16905090565b60008060009054906101000a900473ffffffffffffffffffffffffffffffffffffffff16905090565b600080905090565b600260009054906101000a900473ffffffffffffffffffffffffffffffffffffffff1681565b60008060009054906101000a900473ffffffffffffffffffffffffffffffffffffffff16905090565b6000809054906101000a900473ffffffffffffffffffffffffffffffffffffffff1681565b60008060149054906101000a900460ff16905090565b6000809054906101000a900473ffffffffffffffffffffffffffffffffffffffff1673ffffffffffffffffffffffffffffffffffffffff163373ffffffffffffffffffffffffffffffffffffffff1614151562001aeb57600080fd5b60008173ffffffffffffffffffffffffffffffffffffffff16141562001b1057600080fd5b806000806101000a81548173ffffffffffffffffffffffffffffffffffffffff021916908373ffffffffffffffffffffffffffffffffffffffff16021790555050565b6000600a54905090565b60008073ffffffffffffffffffffffffffffffffffffffff1662001b80620019a7565b73ffffffffffffffffffffffffffffffffffffffff161415801562001bdb5750600073ffffffffffffffffffffffffffffffffffffffff1662001bc262001972565b73ffffffffffffffffffffffffffffffffffffffff1614155b905090565b6060600d8054600181600116156101000203166002900480601f01602080910402602001604051908101604052809291908181526020018280546001816001161561010002031660029004801562001c7c5780601f1062001c505761010080835404028352916020019162001c7c565b820191906000526020600020905b81548152906001019060200180831162001c5e57829003601f168201915b5050505050905090565b6006600a81111562001c9457fe5b600060149054906101000a900460ff16600a81111562001cb057fe5b14151562001cbd57600080fd5b6009600060146101000a81548160ff0219169083600a81111562001cdd57fe5b02179055503373ffffffffffffffffffffffffffffffffffffffff1662001d036200199f565b73ffffffffffffffffffffffffffffffffffffffff167fb045224df2b3987361a530219dd4444888d47a8e07af71c364c99fe7468f176f600060149054906101000a900460ff16426040518083600a81111562001d5c57fe5b60ff1681526020018281526020019250505060405180910390a3565b60008073ffffffffffffffffffffffffffffffffffffffff1662001d9b620019fd565b73ffffffffffffffffffffffffffffffffffffffff161415905090565b600062001dc4620019d4565b73ffffffffffffffffffffffffffffffffffffffff163373ffffffffffffffffffffffffffffffffffffffff1614151562001dfe57600080fd5b6000600a81111562001e0c57fe5b600060149054906101000a900460ff16600a81111562001e2857fe5b14151562001e3557600080fd5b6001600060146101000a81548160ff0219169083600a81111562001e5557fe5b02179055503373ffffffffffffffffffffffffffffffffffffffff1662001e7b6200199f565b73ffffffffffffffffffffffffffffffffffffffff167fe10024035668761375cfcfe9cbd74261a7c93ffafc8059f85ba7477baf874921600060149054906101000a900460ff1685426040518084600a81111562001ed557fe5b60ff16815260200180602001838152602001828103825284818151815260200191508051906020019080838360005b8381101562001f2157808201518184015260208101905062001f04565b50505050905090810190601f16801562001f4f5780820380516001836020036101000a031916815260200191505b5094505050505060405180910390a360019050919050565b60048060000160009054906101000a900473ffffffffffffffffffffffffffffffffffffffff16908060010160009054906101000a900473ffffffffffffffffffffffffffffffffffffffff16905082565b600160009054906101000a900473ffffffffffffffffffffffffffffffffffffffff1681565b600062001feb620019a7565b73ffffffffffffffffffffffffffffffffffffffff163373ffffffffffffffffffffffffffffffffffffffff161415156200202557600080fd5b6001600a8111156200203357fe5b600060149054906101000a900460ff16600a8111156200204f57fe5b14806200208357506002600a8111156200206557fe5b600060149054906101000a900460ff16600a8111156200208157fe5b145b8015620020f057506002600a8111156200209957fe5b82600a811115620020a657fe5b1480620020cb57506003600a811115620020bc57fe5b82600a811115620020c957fe5b145b80620020ef57506004600a811115620020e057fe5b82600a811115620020ed57fe5b145b5b1515620020fc57600080fd5b81600060146101000a81548160ff0219169083600a8111156200211b57fe5b02179055503373ffffffffffffffffffffffffffffffffffffffff16620021416200199f565b73ffffffffffffffffffffffffffffffffffffffff167f508c5c654e715d2dda84dde20b40b29a2b462944231ab692f10b091a38541a8d8486426040518084600a8111156200218c57fe5b60ff16815260200180602001838152602001828103825284818151815260200191508051906020019080838360005b83811015620021d8578082015181840152602081019050620021bb565b50505050905090810190601f168015620022065780820380516001836020036101000a031916815260200191505b5094505050505060405180910390a36001905092915050565b6000600160009054906101000a900473ffffffffffffffffffffffffffffffffffffffff16905090565b600080825111156200225f576001905062002264565b600090505b919050565b604051611445806200227b8339019056006080604052336000806101000a81548173ffffffffffffffffffffffffffffffffffffffff021916908373ffffffffffffffffffffffffffffffffffffffff1602179055503480156200005157600080fd5b50604051620014453803806200144583398101806040528101908080519060200190929190805190602001909291908051820192919050505082600160006101000a81548173ffffffffffffffffffffffffffffffffffffffff021916908373ffffffffffffffffffffffffffffffffffffffff16021790555081600260006101000a81548173ffffffffffffffffffffffffffffffffffffffff021916908373ffffffffffffffffffffffffffffffffffffffff160217905550806003908051906020019062000124929190620002bc565b506001600260146101000a81548160ff021916908360048111156200014557fe5b02179055507feeb6ffd7090cc72ad3fc8b9c2879f7b97d4f9eb9b2943c50a4cbab3931db090983303384600260149054906101000a900460ff1642604051808773ffffffffffffffffffffffffffffffffffffffff1673ffffffffffffffffffffffffffffffffffffffff1681526020018673ffffffffffffffffffffffffffffffffffffffff1673ffffffffffffffffffffffffffffffffffffffff1681526020018573ffffffffffffffffffffffffffffffffffffffff1673ffffffffffffffffffffffffffffffffffffffff168152602001806020018460048111156200022b57fe5b60ff168152602001838152602001828103825285818151815260200191508051906020019080838360005b838110156200027357808201518184015260208101905062000256565b50505050905090810190601f168015620002a15780820380516001836020036101000a031916815260200191505b5097505050505050505060405180910390a15050506200036b565b828054600181600116156101000203166002900490600052602060002090601f016020900481019282601f10620002ff57805160ff191683800117855562000330565b8280016001018555821562000330579182015b828111156200032f57825182559160200191906001019062000312565b5b5090506200033f919062000343565b5090565b6200036891905b80821115620003645760008160009055506001016200034a565b5090565b90565b6110ca806200037b6000396000f3006080604052600436106100d0576000357c0100000000000000000000000000000000000000000000000000000000900463ffffffff1680631865c57d146100d55780632f13b60c1461010e57806338e537b31461013d57806343d726d6146102c4578063488523bc146102db578063565a2e2c1461036b5780635d1ca631146103c257806388a22f7a14610419578063893d20e8146104705780638da5cb5b146104c7578063a6f9dae11461051e578063b135648814610561578063bea14fc11461058c578063c700c70d146105c3575b600080fd5b3480156100e157600080fd5b506100ea6105da565b604051808260048111156100fa57fe5b60ff16815260200191505060405180910390f35b34801561011a57600080fd5b50610123610637565b604051808215151515815260200191505060405180910390f35b34801561014957600080fd5b50610152610648565b604051808e73ffffffffffffffffffffffffffffffffffffffff1673ffffffffffffffffffffffffffffffffffffffff1681526020018d73ffffffffffffffffffffffffffffffffffffffff1673ffffffffffffffffffffffffffffffffffffffff1681526020018c73ffffffffffffffffffffffffffffffffffffffff1673ffffffffffffffffffffffffffffffffffffffff1681526020018b73ffffffffffffffffffffffffffffffffffffffff1673ffffffffffffffffffffffffffffffffffffffff1681526020018a73ffffffffffffffffffffffffffffffffffffffff1673ffffffffffffffffffffffffffffffffffffffff1681526020018960001916600019168152602001886000191660001916815260200187815260200186815260200185815260200184600281111561028a57fe5b60ff1681526020018381526020018260048111156102a457fe5b60ff1681526020019d505050505050505050505050505060405180910390f35b3480156102d057600080fd5b506102d9610a25565b005b3480156102e757600080fd5b506102f0610aba565b6040518080602001828103825283818151815260200191508051906020019080838360005b83811015610330578082015181840152602081019050610315565b50505050905090810190601f16801561035d5780820380516001836020036101000a031916815260200191505b509250505060405180910390f35b34801561037757600080fd5b50610380610b5c565b604051808273ffffffffffffffffffffffffffffffffffffffff1673ffffffffffffffffffffffffffffffffffffffff16815260200191505060405180910390f35b3480156103ce57600080fd5b506103d7610c29565b604051808273ffffffffffffffffffffffffffffffffffffffff1673ffffffffffffffffffffffffffffffffffffffff16815260200191505060405180910390f35b34801561042557600080fd5b5061042e610c31565b604051808273ffffffffffffffffffffffffffffffffffffffff1673ffffffffffffffffffffffffffffffffffffffff16815260200191505060405180910390f35b34801561047c57600080fd5b50610485610c5b565b604051808273ffffffffffffffffffffffffffffffffffffffff1673ffffffffffffffffffffffffffffffffffffffff16815260200191505060405180910390f35b3480156104d357600080fd5b506104dc610c84565b604051808273ffffffffffffffffffffffffffffffffffffffff1673ffffffffffffffffffffffffffffffffffffffff16815260200191505060405180910390f35b34801561052a57600080fd5b5061055f600480360381019080803573ffffffffffffffffffffffffffffffffffffffff169060200190929190505050610ca9565b005b34801561056d57600080fd5b50610576610d6b565b6040518082815260200191505060405180910390f35b34801561059857600080fd5b506105c16004803603810190808035906020019092919080359060200190929190505050610e38565b005b3480156105cf57600080fd5b506105d8610f57565b005b6000600160048111156105e957fe5b600260149054906101000a900460ff16600481111561060457fe5b141561062157610612610637565b156106205760029050610634565b5b600260149054906101000a900460ff1690505b90565b600042610642610d6b565b10905090565b600080600080600080600080600080600080600080600160009054906101000a900473ffffffffffffffffffffffffffffffffffffffff1690508073ffffffffffffffffffffffffffffffffffffffff16631c32e7af6040518163ffffffff167c01000000000000000000000000000000000000000000000000000000000281526004016101c060405180830381600087803b1580156106e757600080fd5b505af11580156106fb573d6000803e3d6000fd5b505050506040513d6101c081101561071257600080fd5b810190808051906020019092919080519060200190929190805190602001909291908051906020019092919080519060200190929190805190602001909291908051906020019092919080519060200190929190805190602001909291908051906020019092919080519060200190929190805190602001909291908051906020019092919080519060200190929190505050909192939495969798999a9b9c50909192939495969798999a9b50909192939495969798999a509091929394959697989950909150905050809950819a50829b50839c50849d50859e50869f5050505050505050600160009054906101000a900473ffffffffffffffffffffffffffffffffffffffff169c50610826610c29565b9d508073ffffffffffffffffffffffffffffffffffffffff1663650d993b6040518163ffffffff167c0100000000000000000000000000000000000000000000000000000000028152600401602060405180830381600087803b15801561088c57600080fd5b505af11580156108a0573d6000803e3d6000fd5b505050506040513d60208110156108b657600080fd5b81019080805190602001909291905050509b508073ffffffffffffffffffffffffffffffffffffffff166360d704db6040518163ffffffff167c0100000000000000000000000000000000000000000000000000000000028152600401602060405180830381600087803b15801561092d57600080fd5b505af1158015610941573d6000803e3d6000fd5b505050506040513d602081101561095757600080fd5b81019080805190602001909291905050509a508073ffffffffffffffffffffffffffffffffffffffff1663565a2e2c6040518163ffffffff167c0100000000000000000000000000000000000000000000000000000000028152600401602060405180830381600087803b1580156109ce57600080fd5b505af11580156109e2573d6000803e3d6000fd5b505050506040513d60208110156109f857600080fd5b81019080805190602001909291905050509950610a136105da565b915050909192939495969798999a9b9c565b6000809054906101000a900473ffffffffffffffffffffffffffffffffffffffff1673ffffffffffffffffffffffffffffffffffffffff163373ffffffffffffffffffffffffffffffffffffffff16141515610a8057600080fd5b6000809054906101000a900473ffffffffffffffffffffffffffffffffffffffff1673ffffffffffffffffffffffffffffffffffffffff16ff5b606060038054600181600116156101000203166002900480601f016020809104026020016040519081016040528092919081815260200182805460018160011615610100020316600290048015610b525780601f10610b2757610100808354040283529160200191610b52565b820191906000526020600020905b815481529060010190602001808311610b3557829003601f168201915b5050505050905090565b600080600160009054906101000a900473ffffffffffffffffffffffffffffffffffffffff1690508073ffffffffffffffffffffffffffffffffffffffff1663565a2e2c6040518163ffffffff167c0100000000000000000000000000000000000000000000000000000000028152600401602060405180830381600087803b158015610be857600080fd5b505af1158015610bfc573d6000803e3d6000fd5b505050506040513d6020811015610c1257600080fd5b810190808051906020019092919050505091505090565b600030905090565b6000600160009054906101000a900473ffffffffffffffffffffffffffffffffffffffff16905090565b60008060009054906101000a900473ffffffffffffffffffffffffffffffffffffffff16905090565b6000809054906101000a900473ffffffffffffffffffffffffffffffffffffffff1681565b6000809054906101000a900473ffffffffffffffffffffffffffffffffffffffff1673ffffffffffffffffffffffffffffffffffffffff163373ffffffffffffffffffffffffffffffffffffffff16141515610d0457600080fd5b60008173ffffffffffffffffffffffffffffffffffffffff161415610d2857600080fd5b806000806101000a81548173ffffffffffffffffffffffffffffffffffffffff021916908373ffffffffffffffffffffffffffffffffffffffff16021790555050565b600080600160009054906101000a900473ffffffffffffffffffffffffffffffffffffffff1690508073ffffffffffffffffffffffffffffffffffffffff1663b13564886040518163ffffffff167c0100000000000000000000000000000000000000000000000000000000028152600401602060405180830381600087803b158015610df757600080fd5b505af1158015610e0b573d6000803e3d6000fd5b505050506040513d6020811015610e2157600080fd5b810190808051906020019092919050505091505090565b7f4d3c9d0e5ee7cb52dbdaaf1fe7b04b94f5d6406283723738ce2a85d0d536998a610e61610c29565b30338585610e6d6105da565b42604051808873ffffffffffffffffffffffffffffffffffffffff1673ffffffffffffffffffffffffffffffffffffffff1681526020018773ffffffffffffffffffffffffffffffffffffffff1673ffffffffffffffffffffffffffffffffffffffff1681526020018673ffffffffffffffffffffffffffffffffffffffff1673ffffffffffffffffffffffffffffffffffffffff16815260200185815260200184815260200180602001846004811115610f2457fe5b60ff1681526020018381526020018281038252600081526020016020019850505050505050505060405180910390a15050565b6003600260146101000a81548160ff02191690836004811115610f7657fe5b02179055507f6518c1da158fee6a2676b0f54a238f60b8607b47ed05a8ac7108a7a866c25fdd600160009054906101000a900473ffffffffffffffffffffffffffffffffffffffff16610fc7610c29565b33600260149054906101000a900460ff1642604051808673ffffffffffffffffffffffffffffffffffffffff1673ffffffffffffffffffffffffffffffffffffffff1681526020018573ffffffffffffffffffffffffffffffffffffffff1673ffffffffffffffffffffffffffffffffffffffff1681526020018473ffffffffffffffffffffffffffffffffffffffff1673ffffffffffffffffffffffffffffffffffffffff16815260200183600481111561107f57fe5b60ff1681526020018281526020019550505050505060405180910390a15600a165627a7a723058200b6db2ac432c9828834341ce0893e200831dc667f77cfd4be5cd5b1b79030dc50029a165627a7a72305820820692541be11d4317494bcf1925da0aacd56a5f28b9b1ae252200a1b15453070029",
  "source": "pragma solidity ^0.4.13;\n\nimport \"./GuaranteeConst.sol\";\nimport \"./GuaranteeRequestExtender.sol\";\nimport \"./GuaranteeExtender.sol\";\nimport \"./DigitalGuaranteeBNHP.sol\";\n\ncontract GuaranteeRequest is GuaranteeRequestExtender{\n    string public version = \"1.00\";\n\n    //holds the addresses of the participating parties for demo reasons\n    struct Addresses {\n    address bank;\n//    address customer;\n    address beneficiary;\n    }\n\n    Addresses public addresses;\n\n    bytes32  full_name;\n\n    bytes32  purpose;\n    uint  amount;\n    uint  startDate;\n    uint  endDate;\n\n    IndexType  indexType;\n    uint  indexDate;\n\n    bytes  theproposalIPFSHash;\n//    bytes  guaranteeIPFSHash;\n\n//    RequestState   status;\n\n//    int  stepNumber;\n\n\n\n//    event Comment(address indexed requestId,int  numberOfStep,RequestState requestState,string commentline,uint timestamp) ;\n\n\n    event GuaranteeRequestCreated (address indexed requestId,address indexed customer ,address indexed bank ,address  beneficiary ,RequestState   curentstatus,bytes32 guarantyPurpose,\n    uint requestAmount, uint requestStartDate,uint requestEndDate,IndexType requestIndexType,uint requestIndexDate,uint timestamp,bytes  proposalIPFSHash);\n\n\n\n    function GuaranteeRequest(address _bank ,address _beneficiary ,bytes32 _full_name ,bytes32 _purpose,\n    uint _amount, uint _startDate,uint _endDate,IndexType _indexType,uint _indexDate,bytes  _proposalIPFSHash)\n    {\n        addresses.bank=_bank;\n        addresses.beneficiary=_beneficiary;\n        purpose=_purpose;\n        amount=_amount;\n        full_name=_full_name;\n        startDate=_startDate;\n        endDate=_endDate;\n        indexType= _indexType;\n        indexDate= _indexDate;\n        status=RequestState.created;\n\n        theproposalIPFSHash=  _proposalIPFSHash ;\n        GuaranteeRequestCreated(getId(),getCustomer() , _bank,_beneficiary ,   status, _purpose,  _amount,  _startDate, _endDate, _indexType, _indexDate , now ,_proposalIPFSHash);\n\n    }\n\n    function getId() constant public returns (address _contract_id)\n    {\n        _contract_id=this;\n//        return this;\n    }\n\n\n\n    function getBank() constant public returns (address _bank)\n    {\n        return addresses.bank;\n    }\n    function getBeneficiary() constant public returns (address _beneficiary)\n    {\n        return addresses.beneficiary;\n    }\n\n    function getEndDate() constant public returns (uint _date)\n    {\n        return endDate;\n    }\n\n\n\n    function getGuaranteeRequestData() constant public returns (address _contract_id,address _customer,address _bank, address _beneficiary,\n    bytes32 _full_name,bytes32 _purpose,uint _amount,uint _startDate,uint _endDate,IndexType _indexType,uint _indexDate,RequestState _status ,bool _isChangeGuarantee,address _changedGuarantee)\n    {\n\n        _contract_id=getId();\n        _customer=getCustomer();\n        _bank=getBank();\n        _beneficiary=getBeneficiary();\n        _purpose=purpose;\n        _amount=amount;\n        _full_name=full_name;\n        _startDate=startDate;\n        _endDate=endDate;\n        _indexType=indexType;\n        _indexDate=indexDate;\n        _status=status;\n        _isChangeGuarantee=isChangeRequest();\n        _changedGuarantee=getChangeRequestGuarantee();\n\n\n    }\n    function getProposalIPFSHash() public constant returns (bytes )\n    {\n        return theproposalIPFSHash;\n    }\n\n//    function setProposalIPFSHash(bytes _proposalIPFSHash) onlyCustomer public  returns (bool result)\n//    {\n//        require(status==RequestState.created);\n//        proposalIPFSHash=_proposalIPFSHash;\n//        return true;\n//    }\n\n\n\n\n//    event Submitted(address indexed requestId,address indexed msgSender,RequestState   curentstatus,string commentline ,uint timestamp);\n//\n//    //submit function to initiat the request\n//    function submit(string comment) onlyCustomer public returns (bool result)\n//\n//    {\n//        require(status==RequestState.created);\n////        stepNumber++;\n//        status=RequestState.waitingtobank;\n//\n//        Submitted(getId(),msg.sender,   status,comment, now);\n//        //        log(\"submitted\",getId()+\"->\"+comment);\n////        Comment( getId(),stepNumber, status,comment);\n//\n//        return true;\n//    }\n//\n//\n//    event Withdrawal(address indexed requestId,address indexed msgSender,RequestState   curentstatus,string commentline,uint timestamp);\n//    //customer withdrawal request\n//    function withdrawal(string comment) onlyCustomer public returns (bool result)\n//    {\n//        require(status!=RequestState.accepted);\n////        stepNumber++;\n//       status=RequestState.withdrawed;\n//        Withdrawal(getId(),msg.sender,   status,comment,now);\n//        //        log(\"withdrawed\",getId()+\"->\"+comment);\n////        Comment(getId(), stepNumber, status,comment);\n//\n//        return true;\n//    }\n//\n//    event Termination(address indexed  requestId,address indexed msgSender,RequestState   curentstatus,uint timestamp);\n//    //bank reject request\n//    function terminateGuarantee()  public\n//    {\n//        require(status==RequestState.accepted );\n////        stepNumber++;\n//\n//        status=RequestState.terminationRequest;\n//        Termination(getId(),msg.sender,   status,now);\n////        Comment( getId(),stepNumber, status,_comment);\n//        //         log(\"rejected\",getId()+\"->\"+comment);\n//\n//    }\n//\n//    event Rejected(address indexed requestId,address indexed msgSender,   RequestState   curentstatus,string commentline,uint timestamp);\n//    //bank reject request\n//    function reject(string comment)  public returns (bool result)\n//    {\n//        require(status!=RequestState.accepted);\n//\n//        status=RequestState.rejected;\n//        Rejected(getId(),msg.sender,   status,comment,now);\n////        Comment( getId(),stepNumber, status,comment);\n//\n//        //         log(\"rejected\",getId()+\"->\"+comment);\n//        return true;\n//\n//    }\n//\n//\n//    event BankStateChange(address indexed requestId,address indexed msgSender,RequestState   curentstatus,string commentline,uint timestamp);\n//    //bank reject request\n//    function bankStateChange(string comment ,RequestState _newState) onlyBank public returns (bool result)\n//    {\n//        require((status==RequestState.waitingtobank      ||\n//\n//        status==RequestState.handling           ) &&\n//        (_newState==RequestState.handling           ||\n//        _newState==RequestState.waitingtocustomer  ||\n//        _newState==RequestState.waitingtobeneficiery ));\n////        stepNumber++;\n//        //        addCommentsForStep(stepNumber,comment);\n//\n//        status=_newState;\n//        BankStateChange(getId(),msg.sender,_newState,comment,now);\n////        Comment( getId(),stepNumber, status,comment);\n//\n//        //         log(\"rejected\",getId()+\"->\"+comment);\n//        return true;\n//\n//    }\n//\n//\n//    event Accepted(address indexed requestId,address indexed msgSender ,RequestState   curentstatus,uint timestamp);\n//    //bank accept request\n//    function accept() onlyRegulator public returns (bool result)\n//    {\n//\n//        require((status==RequestState.waitingtobank || status==RequestState.handling || status==RequestState.changeRequested)  && guarantee==address(0));\n//\n//        status=RequestState.accepted;\n//        Accepted(getId(),msg.sender,   status,now);\n////        Comment( getId(),stepNumber, status,comment);\n//        //        if (status!=RequestState.changeRequested)\n//        //        {\n//        //            GuaranteeRequest(changeRequest).\n//        //            if (guarantee!= address(0))\n//        //            {\n//        //            GuaranteeExtender(guarantee).terminate();\n//        //            }\n//        //            addCommentsForStep(stepNumber,comment);\n//        //            status=RequestState.terminationRequest;\n//        //            Termination(getId(),msg.sender,comment);\n//        //\n//        //\n//        //        }\n//        return true;\n//    }\n//\n//\n//    event GuarantieSigned(address indexed requestId,address indexed  guarantieId,RequestState   curentstatus,uint timestamp);\n//    event GuarantieChangeSigned(address indexed requestId,address indexed  guarantieId,RequestState   curentstatus,uint timestamp);\n//\n//    function signComplite(bytes _guaranteeIPFSHash) onlyRegulator public returns (address)\n//    {\n//        require( getRequestState()==RequestState.accepted && _checkArray(_guaranteeIPFSHash) && msg.sender == getRegulator());\n//        GuaranteeExtender gr= new DigitalGuaranteeBNHP(getId(),getRegulator(),_guaranteeIPFSHash);\n//        guarantee=gr.getId();\n//        if (isChangeRequest())\n//        {\n//            GuarantieChangeSigned(getId(),gr.getId(),   status,now);\n//            GuaranteeExtender(changeRequestGuaranteeAdr).terminateGuarantee();\n//        }\n//    else\n//        {\n//            GuarantieSigned(getId(),gr.getId(),   status,now);\n//        }\n//\n//        return guarantee;\n//    }\n\n    function getChangeRequestGuarantee() constant public returns (address )\n    {\n        return address(0);\n    }\n\n\n\n}\n",
  "sourcePath": "/Users/irachka/DimaPOCProject/guarantees/contracts/GuaranteeRequest.sol",
  "compiler": {
    "name": "solc",
    "version": "0.4.23+commit.124ca40d.Emscripten.clang"
  },
  "schemaVersion": "2.0.0",
  "updatedAt": "2018-04-25T10:53:46.711Z"
}