{
  "contractName": "IssuerManager",
  "abi": [
    {
      "constant": true,
      "inputs": [
        {
          "name": "",
          "type": "address"
        }
      ],
      "name": "issuers",
      "outputs": [
        {
          "name": "name",
          "type": "string"
        },
        {
          "name": "localAddress",
          "type": "string"
        },
        {
          "name": "addr",
          "type": "address"
        },
        {
          "name": "isdefined",
          "type": "bool"
        }
      ],
      "payable": false,
      "stateMutability": "view",
      "type": "function"
    },
    {
      "constant": false,
      "inputs": [],
      "name": "close",
      "outputs": [],
      "payable": false,
      "stateMutability": "nonpayable",
      "type": "function"
    },
    {
      "constant": true,
      "inputs": [],
      "name": "getOwner",
      "outputs": [
        {
          "name": "",
          "type": "address"
        }
      ],
      "payable": false,
      "stateMutability": "view",
      "type": "function"
    },
    {
      "constant": true,
      "inputs": [],
      "name": "owner",
      "outputs": [
        {
          "name": "",
          "type": "address"
        }
      ],
      "payable": false,
      "stateMutability": "view",
      "type": "function"
    },
    {
      "constant": false,
      "inputs": [
        {
          "name": "_newOwner",
          "type": "address"
        }
      ],
      "name": "changeOwner",
      "outputs": [],
      "payable": false,
      "stateMutability": "nonpayable",
      "type": "function"
    },
    {
      "anonymous": false,
      "inputs": [
        {
          "indexed": false,
          "name": "msgSender",
          "type": "address"
        },
        {
          "indexed": false,
          "name": "issuerAdr",
          "type": "address"
        },
        {
          "indexed": false,
          "name": "msgstr",
          "type": "string"
        },
        {
          "indexed": false,
          "name": "timestamp",
          "type": "uint256"
        }
      ],
      "name": "AddIssuer",
      "type": "event"
    },
    {
      "constant": false,
      "inputs": [
        {
          "name": "_addr",
          "type": "address"
        },
        {
          "name": "_name",
          "type": "string"
        },
        {
          "name": "_localAddres",
          "type": "string"
        }
      ],
      "name": "submitIssuer",
      "outputs": [],
      "payable": false,
      "stateMutability": "nonpayable",
      "type": "function"
    },
    {
      "constant": true,
      "inputs": [],
      "name": "getIssuerCounter",
      "outputs": [
        {
          "name": "",
          "type": "uint256"
        }
      ],
      "payable": false,
      "stateMutability": "view",
      "type": "function"
    },
    {
      "constant": true,
      "inputs": [],
      "name": "getIssuerAddressesList",
      "outputs": [
        {
          "name": "",
          "type": "address[]"
        }
      ],
      "payable": false,
      "stateMutability": "view",
      "type": "function"
    },
    {
      "constant": true,
      "inputs": [
        {
          "name": "_id",
          "type": "uint256"
        }
      ],
      "name": "getIssuerById",
      "outputs": [
        {
          "name": "",
          "type": "string"
        },
        {
          "name": "",
          "type": "string"
        },
        {
          "name": "",
          "type": "address"
        }
      ],
      "payable": false,
      "stateMutability": "view",
      "type": "function"
    },
    {
      "constant": true,
      "inputs": [
        {
          "name": "_addr",
          "type": "address"
        }
      ],
      "name": "getIssuer",
      "outputs": [
        {
          "name": "",
          "type": "string"
        },
        {
          "name": "",
          "type": "string"
        }
      ],
      "payable": false,
      "stateMutability": "view",
      "type": "function"
    }
  ],
  "bytecode": "0x6080604052336000806101000a81548173ffffffffffffffffffffffffffffffffffffffff021916908373ffffffffffffffffffffffffffffffffffffffff16021790555034801561005057600080fd5b50611335806100606000396000f3006080604052600436106100a4576000357c0100000000000000000000000000000000000000000000000000000000900463ffffffff168063379f4484146100a957806338a7543e1461011557806343d726d61461027b57806356d58ef514610292578063893d20e8146102bd5780638da5cb5b14610314578063a6f9dae11461036b578063b643e587146103ae578063dc198587146104f3578063fef03da3146105c2575b600080fd5b3480156100b557600080fd5b506100be6106ea565b6040518080602001828103825283818151815260200191508051906020019060200280838360005b838110156101015780820151818401526020810190506100e6565b505050509050019250505060405180910390f35b34801561012157600080fd5b50610156600480360381019080803573ffffffffffffffffffffffffffffffffffffffff169060200190929190505050610778565b6040518080602001806020018573ffffffffffffffffffffffffffffffffffffffff1673ffffffffffffffffffffffffffffffffffffffff16815260200184151515158152602001838103835287818151815260200191508051906020019080838360005b838110156101d65780820151818401526020810190506101bb565b50505050905090810190601f1680156102035780820380516001836020036101000a031916815260200191505b50838103825286818151815260200191508051906020019080838360005b8381101561023c578082015181840152602081019050610221565b50505050905090810190601f1680156102695780820380516001836020036101000a031916815260200191505b50965050505050505060405180910390f35b34801561028757600080fd5b50610290610905565b005b34801561029e57600080fd5b506102a761099a565b6040518082815260200191505060405180910390f35b3480156102c957600080fd5b506102d26109a7565b604051808273ffffffffffffffffffffffffffffffffffffffff1673ffffffffffffffffffffffffffffffffffffffff16815260200191505060405180910390f35b34801561032057600080fd5b506103296109d0565b604051808273ffffffffffffffffffffffffffffffffffffffff1673ffffffffffffffffffffffffffffffffffffffff16815260200191505060405180910390f35b34801561037757600080fd5b506103ac600480360381019080803573ffffffffffffffffffffffffffffffffffffffff1690602001909291905050506109f5565b005b3480156103ba57600080fd5b506103d960048036038101908080359060200190929190505050610ab7565b6040518080602001806020018473ffffffffffffffffffffffffffffffffffffffff1673ffffffffffffffffffffffffffffffffffffffff168152602001838103835286818151815260200191508051906020019080838360005b8381101561044f578082015181840152602081019050610434565b50505050905090810190601f16801561047c5780820380516001836020036101000a031916815260200191505b50838103825285818151815260200191508051906020019080838360005b838110156104b557808201518184015260208101905061049a565b50505050905090810190601f1680156104e25780820380516001836020036101000a031916815260200191505b509550505050505060405180910390f35b3480156104ff57600080fd5b506105c0600480360381019080803573ffffffffffffffffffffffffffffffffffffffff169060200190929190803590602001908201803590602001908080601f0160208091040260200160405190810160405280939291908181526020018383808284378201915050505050509192919290803590602001908201803590602001908080601f0160208091040260200160405190810160405280939291908181526020018383808284378201915050505050509192919290505050610d35565b005b3480156105ce57600080fd5b50610603600480360381019080803573ffffffffffffffffffffffffffffffffffffffff169060200190929190505050610ffc565b604051808060200180602001838103835285818151815260200191508051906020019080838360005b8381101561064757808201518184015260208101905061062c565b50505050905090810190601f1680156106745780820380516001836020036101000a031916815260200191505b50838103825284818151815260200191508051906020019080838360005b838110156106ad578082015181840152602081019050610692565b50505050905090810190601f1680156106da5780820380516001836020036101000a031916815260200191505b5094505050505060405180910390f35b6060600280548060200260200160405190810160405280929190818152602001828054801561076e57602002820191906000526020600020905b8160009054906101000a900473ffffffffffffffffffffffffffffffffffffffff1673ffffffffffffffffffffffffffffffffffffffff1681526020019060010190808311610724575b5050505050905090565b6001602052806000526040600020600091509050806000018054600181600116156101000203166002900480601f0160208091040260200160405190810160405280929190818152602001828054600181600116156101000203166002900480156108245780601f106107f957610100808354040283529160200191610824565b820191906000526020600020905b81548152906001019060200180831161080757829003601f168201915b505050505090806001018054600181600116156101000203166002900480601f0160208091040260200160405190810160405280929190818152602001828054600181600116156101000203166002900480156108c25780601f10610897576101008083540402835291602001916108c2565b820191906000526020600020905b8154815290600101906020018083116108a557829003601f168201915b5050505050908060020160009054906101000a900473ffffffffffffffffffffffffffffffffffffffff16908060020160149054906101000a900460ff16905084565b6000809054906101000a900473ffffffffffffffffffffffffffffffffffffffff1673ffffffffffffffffffffffffffffffffffffffff163373ffffffffffffffffffffffffffffffffffffffff1614151561096057600080fd5b6000809054906101000a900473ffffffffffffffffffffffffffffffffffffffff1673ffffffffffffffffffffffffffffffffffffffff16ff5b6000600280549050905090565b60008060009054906101000a900473ffffffffffffffffffffffffffffffffffffffff16905090565b6000809054906101000a900473ffffffffffffffffffffffffffffffffffffffff1681565b6000809054906101000a900473ffffffffffffffffffffffffffffffffffffffff1673ffffffffffffffffffffffffffffffffffffffff163373ffffffffffffffffffffffffffffffffffffffff16141515610a5057600080fd5b60008173ffffffffffffffffffffffffffffffffffffffff161415610a7457600080fd5b806000806101000a81548173ffffffffffffffffffffffffffffffffffffffff021916908373ffffffffffffffffffffffffffffffffffffffff16021790555050565b6060806000610ac4611223565b60028054905085101515610ad757600080fd5b60016000600287815481101515610aea57fe5b9060005260206000200160009054906101000a900473ffffffffffffffffffffffffffffffffffffffff1673ffffffffffffffffffffffffffffffffffffffff1673ffffffffffffffffffffffffffffffffffffffff16815260200190815260200160002060806040519081016040529081600082018054600181600116156101000203166002900480601f016020809104026020016040519081016040528092919081815260200182805460018160011615610100020316600290048015610bf45780601f10610bc957610100808354040283529160200191610bf4565b820191906000526020600020905b815481529060010190602001808311610bd757829003601f168201915b50505050508152602001600182018054600181600116156101000203166002900480601f016020809104026020016040519081016040528092919081815260200182805460018160011615610100020316600290048015610c965780601f10610c6b57610100808354040283529160200191610c96565b820191906000526020600020905b815481529060010190602001808311610c7957829003601f168201915b505050505081526020016002820160009054906101000a900473ffffffffffffffffffffffffffffffffffffffff1673ffffffffffffffffffffffffffffffffffffffff1673ffffffffffffffffffffffffffffffffffffffff1681526020016002820160149054906101000a900460ff1615151515815250509050806000015181602001518260400151829250819150935093509350509193909250565b60008060009054906101000a900473ffffffffffffffffffffffffffffffffffffffff1673ffffffffffffffffffffffffffffffffffffffff163373ffffffffffffffffffffffffffffffffffffffff16141515610d9257600080fd5b600160008573ffffffffffffffffffffffffffffffffffffffff1673ffffffffffffffffffffffffffffffffffffffff1681526020019081526020016000209050600015158160020160149054906101000a900460ff1615151415610f815760028490806001815401808255809150509060018203906000526020600020016000909192909190916101000a81548173ffffffffffffffffffffffffffffffffffffffff021916908373ffffffffffffffffffffffffffffffffffffffff160217905550507fb3bb6454838f769878c9da3dacefc82660ff82c898c373385ad5e32c9aa4767433858542604051808573ffffffffffffffffffffffffffffffffffffffff1673ffffffffffffffffffffffffffffffffffffffff1681526020018473ffffffffffffffffffffffffffffffffffffffff1673ffffffffffffffffffffffffffffffffffffffff16815260200180602001838152602001828103825284818151815260200191508051906020019080838360005b83811015610f26578082015181840152602081019050610f0b565b50505050905090810190601f168015610f535780820380516001836020036101000a031916815260200191505b509550505050505060405180910390a160018160020160146101000a81548160ff0219169083151502179055505b82816000019080519060200190610f99929190611264565b5081816001019080519060200190610fb2929190611264565b50838160020160006101000a81548173ffffffffffffffffffffffffffffffffffffffff021916908373ffffffffffffffffffffffffffffffffffffffff16021790555050505050565b606080611007611223565b600160008573ffffffffffffffffffffffffffffffffffffffff1673ffffffffffffffffffffffffffffffffffffffff16815260200190815260200160002060806040519081016040529081600082018054600181600116156101000203166002900480601f0160208091040260200160405190810160405280929190818152602001828054600181600116156101000203166002900480156110eb5780601f106110c0576101008083540402835291602001916110eb565b820191906000526020600020905b8154815290600101906020018083116110ce57829003601f168201915b50505050508152602001600182018054600181600116156101000203166002900480601f01602080910402602001604051908101604052809291908181526020018280546001816001161561010002031660029004801561118d5780601f106111625761010080835404028352916020019161118d565b820191906000526020600020905b81548152906001019060200180831161117057829003601f168201915b505050505081526020016002820160009054906101000a900473ffffffffffffffffffffffffffffffffffffffff1673ffffffffffffffffffffffffffffffffffffffff1673ffffffffffffffffffffffffffffffffffffffff1681526020016002820160149054906101000a900460ff1615151515815250509050806000015181602001518191508090509250925050915091565b6080604051908101604052806060815260200160608152602001600073ffffffffffffffffffffffffffffffffffffffff1681526020016000151581525090565b828054600181600116156101000203166002900490600052602060002090601f016020900481019282601f106112a557805160ff19168380011785556112d3565b828001600101855582156112d3579182015b828111156112d25782518255916020019190600101906112b7565b5b5090506112e091906112e4565b5090565b61130691905b808211156113025760008160009055506001016112ea565b5090565b905600a165627a7a723058202f552b9bd13396650fca0e6821003ded4e2d5cb6ceec7f12375f38a4b1744e700029",
  "source": "pragma solidity ^0.4.0;\n\nimport \"./Ownable.sol\";\n\ncontract IssuerManager  is Ownable {\n    enum issuerStatus { submited,  accepted, rejected }\n\n    //describes the customer object\n    struct Issuer {\n    string name;\n    string localAddress;\n    address addr;\n    bool isdefined;\n//    issuerStatus status;\n//    address []   guaranteeRequests;\n    }\n    //holds all customers by their address\n    mapping (address=>Issuer) public issuers;\n    address   [] issuerList;\n\n\n    event AddIssuer (address msgSender,address issuerAdr,string msgstr,uint timestamp);\n\n    function submitIssuer(address _addr , string _name, string _localAddres) onlyOwner public {\n\n        Issuer  issuer = issuers[_addr];\n        if(issuer.isdefined == false){\n            issuerList.push(_addr);\n\n            AddIssuer(msg.sender, _addr ,_name,block.timestamp);\n            issuer.isdefined =true;\n        }\n\n        issuer.name   = _name;\n        issuer.localAddress    = _localAddres;\n        issuer.addr = _addr;\n\n\n//        issuer.status = issuerStatus.accepted;\n\n    }\n\n//    event UpdateIssuersStatus(address msgSender,string msgstr,uint timestamp);\n//\n//    function changeIssuerStatus(address _addr, issuerStatus _status) onlyOwner public{\n//        for(uint32 i=0; i<issuerList.length; i++) {\n//            if(issuers[i].addr == _addr) {\n//                issuers[i].status = _status;\n//                // if(issuers[i].status == issuerStatus)\n//                // {\n//                //     UpdateIssuersStatus(msg.sender,\"Approved\",block.timestamp);\n//                // }\n//                // else\n//                // {\n//                //     UpdateIssuersStatus(msg.sender,\"Rejected\",block.timestamp);\n//                // }\n//                break;\n//            }\n//        }\n//\n//    }\n\n    function getIssuerCounter() public constant returns (uint ) {\n        return issuerList.length;\n    }\n\n    function getIssuerAddressesList() public constant returns (address[] )\n    {\n        return issuerList;\n\n    }\n\n    function getIssuerById(uint _id) constant public returns(string , string , address )  {\n\n        if(_id >= issuerList.length) {\n            throw;\n        }\n        Issuer memory ci = issuers[issuerList[_id]];\n\n        return (ci.name,ci.localAddress,ci.addr);\n    }\n\n    function getIssuer(address _addr) constant public returns(string , string  )  {\n\n        Issuer memory ci = issuers[_addr];\n\n        return (ci.name,ci.localAddress);\n\n    }\n\n\n    //    modifier issuersOnly {\n    //        bool found = false;\n    //        for(uint32 i=0; i<issuers.length; i++) {\n    //            if(issuers[i].addr == msg.sender && issuers[i].status == issuerStatus.accepted) {\n    //                found = true;\n    //                break;\n    //            }\n    //        }\n    //        if(!found) throw;\n    //        _;\n    //    }\n\n\n}\n",
  "sourcePath": "/Users/irachka/DimaPOCProject/guarantees/contracts/IssuerManager.sol",
  "compiler": {
    "name": "solc",
    "version": "0.4.23+commit.124ca40d.Emscripten.clang"
  },
  "schemaVersion": "2.0.0",
  "updatedAt": "2018-04-25T10:53:46.708Z"
}