{
  "contractName": "Regulator",
  "abi": [
    {
      "constant": true,
      "inputs": [
        {
          "name": "",
          "type": "address"
        }
      ],
      "name": "beneficiaries",
      "outputs": [
        {
          "name": "name",
          "type": "string"
        },
        {
          "name": "localAddress",
          "type": "string"
        },
        {
          "name": "isdefined",
          "type": "bool"
        }
      ],
      "payable": false,
      "stateMutability": "view",
      "type": "function"
    },
    {
      "constant": true,
      "inputs": [
        {
          "name": "",
          "type": "address"
        }
      ],
      "name": "customers",
      "outputs": [
        {
          "name": "name",
          "type": "string"
        },
        {
          "name": "localAddress",
          "type": "string"
        },
        {
          "name": "isdefined",
          "type": "bool"
        }
      ],
      "payable": false,
      "stateMutability": "view",
      "type": "function"
    },
    {
      "constant": true,
      "inputs": [],
      "name": "getIssuerAddressesList",
      "outputs": [
        {
          "name": "",
          "type": "address[]"
        }
      ],
      "payable": false,
      "stateMutability": "view",
      "type": "function"
    },
    {
      "constant": true,
      "inputs": [
        {
          "name": "",
          "type": "address"
        }
      ],
      "name": "issuers",
      "outputs": [
        {
          "name": "name",
          "type": "string"
        },
        {
          "name": "localAddress",
          "type": "string"
        },
        {
          "name": "addr",
          "type": "address"
        },
        {
          "name": "isdefined",
          "type": "bool"
        }
      ],
      "payable": false,
      "stateMutability": "view",
      "type": "function"
    },
    {
      "constant": false,
      "inputs": [],
      "name": "close",
      "outputs": [],
      "payable": false,
      "stateMutability": "nonpayable",
      "type": "function"
    },
    {
      "constant": false,
      "inputs": [
        {
          "name": "_addr",
          "type": "address"
        },
        {
          "name": "_name",
          "type": "string"
        },
        {
          "name": "_localAddres",
          "type": "string"
        }
      ],
      "name": "submitCustomer",
      "outputs": [],
      "payable": false,
      "stateMutability": "nonpayable",
      "type": "function"
    },
    {
      "constant": true,
      "inputs": [
        {
          "name": "_addr",
          "type": "address"
        }
      ],
      "name": "getBeneficiary",
      "outputs": [
        {
          "name": "_name",
          "type": "string"
        },
        {
          "name": "_localAddress",
          "type": "string"
        }
      ],
      "payable": false,
      "stateMutability": "view",
      "type": "function"
    },
    {
      "constant": true,
      "inputs": [],
      "name": "getIssuerCounter",
      "outputs": [
        {
          "name": "",
          "type": "uint256"
        }
      ],
      "payable": false,
      "stateMutability": "view",
      "type": "function"
    },
    {
      "constant": true,
      "inputs": [],
      "name": "getBeneficiaryAddresses",
      "outputs": [
        {
          "name": "",
          "type": "address[]"
        }
      ],
      "payable": false,
      "stateMutability": "view",
      "type": "function"
    },
    {
      "constant": false,
      "inputs": [
        {
          "name": "_addr",
          "type": "address"
        },
        {
          "name": "_name",
          "type": "string"
        },
        {
          "name": "_localAddres",
          "type": "string"
        }
      ],
      "name": "submitBeneficiary",
      "outputs": [],
      "payable": false,
      "stateMutability": "nonpayable",
      "type": "function"
    },
    {
      "constant": true,
      "inputs": [],
      "name": "getOwner",
      "outputs": [
        {
          "name": "",
          "type": "address"
        }
      ],
      "payable": false,
      "stateMutability": "view",
      "type": "function"
    },
    {
      "constant": true,
      "inputs": [],
      "name": "owner",
      "outputs": [
        {
          "name": "",
          "type": "address"
        }
      ],
      "payable": false,
      "stateMutability": "view",
      "type": "function"
    },
    {
      "constant": true,
      "inputs": [
        {
          "name": "",
          "type": "uint256"
        }
      ],
      "name": "guaranteeRequests",
      "outputs": [
        {
          "name": "",
          "type": "address"
        }
      ],
      "payable": false,
      "stateMutability": "view",
      "type": "function"
    },
    {
      "constant": false,
      "inputs": [
        {
          "name": "_newOwner",
          "type": "address"
        }
      ],
      "name": "changeOwner",
      "outputs": [],
      "payable": false,
      "stateMutability": "nonpayable",
      "type": "function"
    },
    {
      "constant": true,
      "inputs": [
        {
          "name": "_id",
          "type": "uint256"
        }
      ],
      "name": "getBeneficiaryById",
      "outputs": [
        {
          "name": "_name",
          "type": "string"
        },
        {
          "name": "_localAddress",
          "type": "string"
        }
      ],
      "payable": false,
      "stateMutability": "view",
      "type": "function"
    },
    {
      "constant": true,
      "inputs": [
        {
          "name": "_id",
          "type": "uint256"
        }
      ],
      "name": "getIssuerById",
      "outputs": [
        {
          "name": "",
          "type": "string"
        },
        {
          "name": "",
          "type": "string"
        },
        {
          "name": "",
          "type": "address"
        }
      ],
      "payable": false,
      "stateMutability": "view",
      "type": "function"
    },
    {
      "constant": true,
      "inputs": [
        {
          "name": "_addr",
          "type": "address"
        }
      ],
      "name": "getCustomer",
      "outputs": [
        {
          "name": "_name",
          "type": "string"
        },
        {
          "name": "_localAddress",
          "type": "string"
        }
      ],
      "payable": false,
      "stateMutability": "view",
      "type": "function"
    },
    {
      "constant": false,
      "inputs": [
        {
          "name": "_addr",
          "type": "address"
        },
        {
          "name": "_name",
          "type": "string"
        },
        {
          "name": "_localAddres",
          "type": "string"
        }
      ],
      "name": "submitIssuer",
      "outputs": [],
      "payable": false,
      "stateMutability": "nonpayable",
      "type": "function"
    },
    {
      "constant": true,
      "inputs": [
        {
          "name": "",
          "type": "uint256"
        }
      ],
      "name": "guarantees",
      "outputs": [
        {
          "name": "",
          "type": "address"
        }
      ],
      "payable": false,
      "stateMutability": "view",
      "type": "function"
    },
    {
      "constant": true,
      "inputs": [
        {
          "name": "_addr",
          "type": "address"
        }
      ],
      "name": "getIssuer",
      "outputs": [
        {
          "name": "",
          "type": "string"
        },
        {
          "name": "",
          "type": "string"
        }
      ],
      "payable": false,
      "stateMutability": "view",
      "type": "function"
    },
    {
      "inputs": [],
      "payable": false,
      "stateMutability": "nonpayable",
      "type": "constructor"
    },
    {
      "anonymous": false,
      "inputs": [
        {
          "indexed": false,
          "name": "msgSender",
          "type": "address"
        },
        {
          "indexed": false,
          "name": "msgstr",
          "type": "string"
        },
        {
          "indexed": false,
          "name": "timestamp",
          "type": "uint256"
        }
      ],
      "name": "RegulatoryContractDeployed",
      "type": "event"
    },
    {
      "anonymous": false,
      "inputs": [
        {
          "indexed": false,
          "name": "_guaranteeRequest",
          "type": "address"
        }
      ],
      "name": "GuaranteeSign",
      "type": "event"
    },
    {
      "anonymous": false,
      "inputs": [
        {
          "indexed": false,
          "name": "msgSender",
          "type": "address"
        },
        {
          "indexed": false,
          "name": "msgstr",
          "type": "string"
        },
        {
          "indexed": false,
          "name": "timestamp",
          "type": "uint256"
        }
      ],
      "name": "AddCustomer",
      "type": "event"
    },
    {
      "anonymous": false,
      "inputs": [
        {
          "indexed": false,
          "name": "msgSender",
          "type": "address"
        },
        {
          "indexed": false,
          "name": "_name",
          "type": "string"
        },
        {
          "indexed": false,
          "name": "timestamp",
          "type": "uint256"
        }
      ],
      "name": "AddBeneficiary",
      "type": "event"
    },
    {
      "anonymous": false,
      "inputs": [
        {
          "indexed": false,
          "name": "msgSender",
          "type": "address"
        },
        {
          "indexed": false,
          "name": "issuerAdr",
          "type": "address"
        },
        {
          "indexed": false,
          "name": "msgstr",
          "type": "string"
        },
        {
          "indexed": false,
          "name": "timestamp",
          "type": "uint256"
        }
      ],
      "name": "AddIssuer",
      "type": "event"
    },
    {
      "constant": true,
      "inputs": [],
      "name": "getRequestAddressList",
      "outputs": [
        {
          "name": "",
          "type": "address[]"
        }
      ],
      "payable": false,
      "stateMutability": "view",
      "type": "function"
    },
    {
      "constant": true,
      "inputs": [],
      "name": "getGuaranteeAddressesList",
      "outputs": [
        {
          "name": "",
          "type": "address[]"
        }
      ],
      "payable": false,
      "stateMutability": "view",
      "type": "function"
    },
    {
      "constant": false,
      "inputs": [
        {
          "name": "_guaranteeRequest",
          "type": "address"
        }
      ],
      "name": "addGuaranteeRequest",
      "outputs": [],
      "payable": false,
      "stateMutability": "nonpayable",
      "type": "function"
    },
    {
      "constant": false,
      "inputs": [
        {
          "name": "_guaranteeRequest",
          "type": "address"
        }
      ],
      "name": "acceptGuaranteeRequest",
      "outputs": [],
      "payable": false,
      "stateMutability": "nonpayable",
      "type": "function"
    },
    {
      "constant": false,
      "inputs": [
        {
          "name": "_guaranteeRequest",
          "type": "address"
        },
        {
          "name": "_guaranteeIPFSHash",
          "type": "bytes"
        }
      ],
      "name": "GuaranteeSignComplite",
      "outputs": [
        {
          "name": "",
          "type": "address"
        }
      ],
      "payable": false,
      "stateMutability": "nonpayable",
      "type": "function"
    },
    {
      "constant": false,
      "inputs": [
        {
          "name": "_guarantee",
          "type": "address"
        }
      ],
      "name": "terminateGuarantee",
      "outputs": [],
      "payable": false,
      "stateMutability": "nonpayable",
      "type": "function"
    },
    {
      "constant": false,
      "inputs": [
        {
          "name": "_changeGuaranteeRequest",
          "type": "address"
        },
        {
          "name": "guarantie",
          "type": "address"
        }
      ],
      "name": "changeGuarantee",
      "outputs": [
        {
          "name": "",
          "type": "address"
        }
      ],
      "payable": false,
      "stateMutability": "nonpayable",
      "type": "function"
    }
  ],
  "bytecode": "0x6080604052336000806101000a81548173ffffffffffffffffffffffffffffffffffffffff021916908373ffffffffffffffffffffffffffffffffffffffff1602179055503480156200005157600080fd5b506200011373d0f2997b8e503f80ba4bd907cd2daf16a23f036c6040805190810160405280601e81526020017fd7a2d7a8d799d7aa20d7a8d790d7a9d795d79f20d79cd7a6d799d795d79f0000815250606060405190810160405280602481526020017fd794d79bd7a8d79ed79c2032302c20d7a8d790d7a9d795d79f20d79cd7a6d79981526020017fd795d79f0000000000000000000000000000000000000000000000000000000081525062000376640100000000026401000000009004565b62000199336040805190810160405280601a81526020017fd7a2d799d7a8d799d799d7aa20d7aad79c2dd790d791d799d7910000000000008152506040805190810160405280601681526020017fd790d791d79f20d792d791d799d7a8d795d79c2036390000000000000000000081525062000376640100000000026401000000009004565b62000246336040805190810160405280601781526020017fd799d7a9d7a8d790d79c20d799d7a9d7a8d790d79cd799000000000000000000815250606060405190810160405280602181526020017fd794d7a8d7a6d79c20313120d7a8d790d7a9d795d79f20d79cd7a6d799d795d781526020017f9f00000000000000000000000000000000000000000000000000000000000000815250620005cf640100000000026401000000009004565b620002cc336040805190810160405280601581526020017fd791d7a0d7a720d794d7a4d795d7a2d79cd799d79d00000000000000000000008152506040805190810160405280601981526020017fd794d7a0d792d79120313120d7aad79c20d790d791d799d79100000000000000815250620007c2640100000000026401000000009004565b7f6c5cfd2de0086551b837a725d5f6a57e13b35c87eb326858461381e854a3a5a13342604051808373ffffffffffffffffffffffffffffffffffffffff1673ffffffffffffffffffffffffffffffffffffffff16815260200180602001838152602001828103825260058152602001807f4d696e6564000000000000000000000000000000000000000000000000000000815250602001935050505060405180910390a162000b41565b60008060009054906101000a900473ffffffffffffffffffffffffffffffffffffffff1673ffffffffffffffffffffffffffffffffffffffff163373ffffffffffffffffffffffffffffffffffffffff16141515620003d457600080fd5b600360008573ffffffffffffffffffffffffffffffffffffffff1673ffffffffffffffffffffffffffffffffffffffff1681526020019081526020016000209050600015158160020160009054906101000a900460ff1615151415620005935760048490806001815401808255809150509060018203906000526020600020016000909192909190916101000a81548173ffffffffffffffffffffffffffffffffffffffff021916908373ffffffffffffffffffffffffffffffffffffffff160217905550507f783e5f858212246618c02751dfbc4e502a48ca372a20f94a46d8e99fe70c998c848442604051808473ffffffffffffffffffffffffffffffffffffffff1673ffffffffffffffffffffffffffffffffffffffff16815260200180602001838152602001828103825284818151815260200191508051906020019080838360005b83811015620005385780820151818401526020810190506200051b565b50505050905090810190601f168015620005665780820380516001836020036101000a031916815260200191505b5094505050505060405180910390a160018160020160006101000a81548160ff0219169083151502179055505b82816000019080519060200190620005ad92919062000a92565b5081816001019080519060200190620005c892919062000a92565b5050505050565b60008060009054906101000a900473ffffffffffffffffffffffffffffffffffffffff1673ffffffffffffffffffffffffffffffffffffffff163373ffffffffffffffffffffffffffffffffffffffff161415156200062d57600080fd5b600560008573ffffffffffffffffffffffffffffffffffffffff1673ffffffffffffffffffffffffffffffffffffffff1681526020019081526020016000209050600015158160020160009054906101000a900460ff161515141562000786577f3cdf985955e499413107b03adc7c7db5433c87ba6fa7a1beec377bb814138b9f338442604051808473ffffffffffffffffffffffffffffffffffffffff1673ffffffffffffffffffffffffffffffffffffffff16815260200180602001838152602001828103825284818151815260200191508051906020019080838360005b838110156200072b5780820151818401526020810190506200070e565b50505050905090810190601f168015620007595780820380516001836020036101000a031916815260200191505b5094505050505060405180910390a160018160020160006101000a81548160ff0219169083151502179055505b82816000019080519060200190620007a092919062000a92565b5081816001019080519060200190620007bb92919062000a92565b5050505050565b60008060009054906101000a900473ffffffffffffffffffffffffffffffffffffffff1673ffffffffffffffffffffffffffffffffffffffff163373ffffffffffffffffffffffffffffffffffffffff161415156200082057600080fd5b600160008573ffffffffffffffffffffffffffffffffffffffff1673ffffffffffffffffffffffffffffffffffffffff1681526020019081526020016000209050600015158160020160149054906101000a900460ff161515141562000a135760028490806001815401808255809150509060018203906000526020600020016000909192909190916101000a81548173ffffffffffffffffffffffffffffffffffffffff021916908373ffffffffffffffffffffffffffffffffffffffff160217905550507fb3bb6454838f769878c9da3dacefc82660ff82c898c373385ad5e32c9aa4767433858542604051808573ffffffffffffffffffffffffffffffffffffffff1673ffffffffffffffffffffffffffffffffffffffff1681526020018473ffffffffffffffffffffffffffffffffffffffff1673ffffffffffffffffffffffffffffffffffffffff16815260200180602001838152602001828103825284818151815260200191508051906020019080838360005b83811015620009b75780820151818401526020810190506200099a565b50505050905090810190601f168015620009e55780820380516001836020036101000a031916815260200191505b509550505050505060405180910390a160018160020160146101000a81548160ff0219169083151502179055505b8281600001908051906020019062000a2d92919062000a92565b508181600101908051906020019062000a4892919062000a92565b50838160020160006101000a81548173ffffffffffffffffffffffffffffffffffffffff021916908373ffffffffffffffffffffffffffffffffffffffff16021790555050505050565b828054600181600116156101000203166002900490600052602060002090601f016020900481019282601f1062000ad557805160ff191683800117855562000b06565b8280016001018555821562000b06579182015b8281111562000b0557825182559160200191906001019062000ae8565b5b50905062000b15919062000b19565b5090565b62000b3e91905b8082111562000b3a57600081600090555060010162000b20565b5090565b90565b613fb98062000b516000396000f30060806040526004361061015f576000357c0100000000000000000000000000000000000000000000000000000000900463ffffffff168063015677391461016457806323e2e3f914610297578063336989ae14610360578063379f44841461049357806338a7543e146104ff5780633dce5fdb1461066557806343d726d6146106d15780634d93c0c3146106e8578063505a1b31146107b757806356d58ef5146108df578063666d50701461090a5780637cb306701461094d57806383a2d050146109b9578063893d20e814610a885780638b4329e514610adf5780638da5cb5b14610b825780639c5a88d414610bd9578063a6f9dae114610c46578063aa0a57ab14610c89578063b0f6c74a14610d9b578063b643e58714610dde578063c1e9278614610f23578063cb949e5114610f8f578063dc198587146110b7578063df754f1114611186578063f813bf8c146111f3578063fef03da314611236575b600080fd5b34801561017057600080fd5b506101a5600480360381019080803573ffffffffffffffffffffffffffffffffffffffff16906020019092919050505061135e565b60405180806020018060200184151515158152602001838103835286818151815260200191508051906020019080838360005b838110156101f35780820151818401526020810190506101d8565b50505050905090810190601f1680156102205780820380516001836020036101000a031916815260200191505b50838103825285818151815260200191508051906020019080838360005b8381101561025957808201518184015260208101905061023e565b50505050905090810190601f1680156102865780820380516001836020036101000a031916815260200191505b509550505050505060405180910390f35b3480156102a357600080fd5b5061031e600480360381019080803573ffffffffffffffffffffffffffffffffffffffff169060200190929190803590602001908201803590602001908080601f01602080910402602001604051908101604052809392919081815260200183838082843782019150505050505091929192905050506114c5565b604051808273ffffffffffffffffffffffffffffffffffffffff1673ffffffffffffffffffffffffffffffffffffffff16815260200191505060405180910390f35b34801561036c57600080fd5b506103a1600480360381019080803573ffffffffffffffffffffffffffffffffffffffff16906020019092919050505061164f565b60405180806020018060200184151515158152602001838103835286818151815260200191508051906020019080838360005b838110156103ef5780820151818401526020810190506103d4565b50505050905090810190601f16801561041c5780820380516001836020036101000a031916815260200191505b50838103825285818151815260200191508051906020019080838360005b8381101561045557808201518184015260208101905061043a565b50505050905090810190601f1680156104825780820380516001836020036101000a031916815260200191505b509550505050505060405180910390f35b34801561049f57600080fd5b506104a86117b6565b6040518080602001828103825283818151815260200191508051906020019060200280838360005b838110156104eb5780820151818401526020810190506104d0565b505050509050019250505060405180910390f35b34801561050b57600080fd5b50610540600480360381019080803573ffffffffffffffffffffffffffffffffffffffff169060200190929190505050611844565b6040518080602001806020018573ffffffffffffffffffffffffffffffffffffffff1673ffffffffffffffffffffffffffffffffffffffff16815260200184151515158152602001838103835287818151815260200191508051906020019080838360005b838110156105c05780820151818401526020810190506105a5565b50505050905090810190601f1680156105ed5780820380516001836020036101000a031916815260200191505b50838103825286818151815260200191508051906020019080838360005b8381101561062657808201518184015260208101905061060b565b50505050905090810190601f1680156106535780820380516001836020036101000a031916815260200191505b50965050505050505060405180910390f35b34801561067157600080fd5b5061067a6119d1565b6040518080602001828103825283818151815260200191508051906020019060200280838360005b838110156106bd5780820151818401526020810190506106a2565b505050509050019250505060405180910390f35b3480156106dd57600080fd5b506106e6611a5f565b005b3480156106f457600080fd5b506107b5600480360381019080803573ffffffffffffffffffffffffffffffffffffffff169060200190929190803590602001908201803590602001908080601f0160208091040260200160405190810160405280939291908181526020018383808284378201915050505050509192919290803590602001908201803590602001908080601f0160208091040260200160405190810160405280939291908181526020018383808284378201915050505050509192919290505050611af4565b005b3480156107c357600080fd5b506107f8600480360381019080803573ffffffffffffffffffffffffffffffffffffffff169060200190929190505050611cde565b604051808060200180602001838103835285818151815260200191508051906020019080838360005b8381101561083c578082015181840152602081019050610821565b50505050905090810190601f1680156108695780820380516001836020036101000a031916815260200191505b50838103825284818151815260200191508051906020019080838360005b838110156108a2578082015181840152602081019050610887565b50505050905090810190601f1680156108cf5780820380516001836020036101000a031916815260200191505b5094505050505060405180910390f35b3480156108eb57600080fd5b506108f4611ea9565b6040518082815260200191505060405180910390f35b34801561091657600080fd5b5061094b600480360381019080803573ffffffffffffffffffffffffffffffffffffffff169060200190929190505050611eb6565b005b34801561095957600080fd5b50610962612120565b6040518080602001828103825283818151815260200191508051906020019060200280838360005b838110156109a557808201518184015260208101905061098a565b505050509050019250505060405180910390f35b3480156109c557600080fd5b50610a86600480360381019080803573ffffffffffffffffffffffffffffffffffffffff169060200190929190803590602001908201803590602001908080601f0160208091040260200160405190810160405280939291908181526020018383808284378201915050505050509192919290803590602001908201803590602001908080601f01602080910402602001604051908101604052809392919081815260200183838082843782019150505050505091929192905050506121ae565b005b348015610a9457600080fd5b50610a9d6123fe565b604051808273ffffffffffffffffffffffffffffffffffffffff1673ffffffffffffffffffffffffffffffffffffffff16815260200191505060405180910390f35b348015610aeb57600080fd5b50610b40600480360381019080803573ffffffffffffffffffffffffffffffffffffffff169060200190929190803573ffffffffffffffffffffffffffffffffffffffff169060200190929190505050612427565b604051808273ffffffffffffffffffffffffffffffffffffffff1673ffffffffffffffffffffffffffffffffffffffff16815260200191505060405180910390f35b348015610b8e57600080fd5b50610b9761290a565b604051808273ffffffffffffffffffffffffffffffffffffffff1673ffffffffffffffffffffffffffffffffffffffff16815260200191505060405180910390f35b348015610be557600080fd5b50610c046004803603810190808035906020019092919050505061292f565b604051808273ffffffffffffffffffffffffffffffffffffffff1673ffffffffffffffffffffffffffffffffffffffff16815260200191505060405180910390f35b348015610c5257600080fd5b50610c87600480360381019080803573ffffffffffffffffffffffffffffffffffffffff16906020019092919050505061296d565b005b348015610c9557600080fd5b50610cb460048036038101908080359060200190929190505050612a2f565b604051808060200180602001838103835285818151815260200191508051906020019080838360005b83811015610cf8578082015181840152602081019050610cdd565b50505050905090810190601f168015610d255780820380516001836020036101000a031916815260200191505b50838103825284818151815260200191508051906020019080838360005b83811015610d5e578082015181840152602081019050610d43565b50505050905090810190601f168015610d8b5780820380516001836020036101000a031916815260200191505b5094505050505060405180910390f35b348015610da757600080fd5b50610ddc600480360381019080803573ffffffffffffffffffffffffffffffffffffffff169060200190929190505050612c4d565b005b348015610dea57600080fd5b50610e09600480360381019080803590602001909291905050506130d0565b6040518080602001806020018473ffffffffffffffffffffffffffffffffffffffff1673ffffffffffffffffffffffffffffffffffffffff168152602001838103835286818151815260200191508051906020019080838360005b83811015610e7f578082015181840152602081019050610e64565b50505050905090810190601f168015610eac5780820380516001836020036101000a031916815260200191505b50838103825285818151815260200191508051906020019080838360005b83811015610ee5578082015181840152602081019050610eca565b50505050905090810190601f168015610f125780820380516001836020036101000a031916815260200191505b509550505050505060405180910390f35b348015610f2f57600080fd5b50610f3861334e565b6040518080602001828103825283818151815260200191508051906020019060200280838360005b83811015610f7b578082015181840152602081019050610f60565b505050509050019250505060405180910390f35b348015610f9b57600080fd5b50610fd0600480360381019080803573ffffffffffffffffffffffffffffffffffffffff1690602001909291905050506133dc565b604051808060200180602001838103835285818151815260200191508051906020019080838360005b83811015611014578082015181840152602081019050610ff9565b50505050905090810190601f1680156110415780820380516001836020036101000a031916815260200191505b50838103825284818151815260200191508051906020019080838360005b8381101561107a57808201518184015260208101905061105f565b50505050905090810190601f1680156110a75780820380516001836020036101000a031916815260200191505b5094505050505060405180910390f35b3480156110c357600080fd5b50611184600480360381019080803573ffffffffffffffffffffffffffffffffffffffff169060200190929190803590602001908201803590602001908080601f0160208091040260200160405190810160405280939291908181526020018383808284378201915050505050509192919290803590602001908201803590602001908080601f01602080910402602001604051908101604052809392919081815260200183838082843782019150505050505091929192905050506135a7565b005b34801561119257600080fd5b506111b16004803603810190808035906020019092919050505061386e565b604051808273ffffffffffffffffffffffffffffffffffffffff1673ffffffffffffffffffffffffffffffffffffffff16815260200191505060405180910390f35b3480156111ff57600080fd5b50611234600480360381019080803573ffffffffffffffffffffffffffffffffffffffff1690602001909291905050506138ac565b005b34801561124257600080fd5b50611277600480360381019080803573ffffffffffffffffffffffffffffffffffffffff169060200190929190505050613c38565b604051808060200180602001838103835285818151815260200191508051906020019080838360005b838110156112bb5780820151818401526020810190506112a0565b50505050905090810190601f1680156112e85780820380516001836020036101000a031916815260200191505b50838103825284818151815260200191508051906020019080838360005b83811015611321578082015181840152602081019050611306565b50505050905090810190601f16801561134e5780820380516001836020036101000a031916815260200191505b5094505050505060405180910390f35b6003602052806000526040600020600091509050806000018054600181600116156101000203166002900480601f01602080910402602001604051908101604052809291908181526020018280546001816001161561010002031660029004801561140a5780601f106113df5761010080835404028352916020019161140a565b820191906000526020600020905b8154815290600101906020018083116113ed57829003601f168201915b505050505090806001018054600181600116156101000203166002900480601f0160208091040260200160405190810160405280929190818152602001828054600181600116156101000203166002900480156114a85780601f1061147d576101008083540402835291602001916114a8565b820191906000526020600020905b81548152906001019060200180831161148b57829003601f168201915b5050505050908060020160009054906101000a900460ff16905083565b60008060008491508173ffffffffffffffffffffffffffffffffffffffff16632259515b856040518263ffffffff167c01000000000000000000000000000000000000000000000000000000000281526004018080602001828103825283818151815260200191508051906020019080838360005b8381101561155557808201518184015260208101905061153a565b50505050905090810190601f1680156115825780820380516001836020036101000a031916815260200191505b5092505050602060405180830381600087803b1580156115a157600080fd5b505af11580156115b5573d6000803e3d6000fd5b505050506040513d60208110156115cb57600080fd5b8101908080519060200190929190505050905060078190806001815401808255809150509060018203906000526020600020016000909192909190916101000a81548173ffffffffffffffffffffffffffffffffffffffff021916908373ffffffffffffffffffffffffffffffffffffffff16021790555050809250505092915050565b6005602052806000526040600020600091509050806000018054600181600116156101000203166002900480601f0160208091040260200160405190810160405280929190818152602001828054600181600116156101000203166002900480156116fb5780601f106116d0576101008083540402835291602001916116fb565b820191906000526020600020905b8154815290600101906020018083116116de57829003601f168201915b505050505090806001018054600181600116156101000203166002900480601f0160208091040260200160405190810160405280929190818152602001828054600181600116156101000203166002900480156117995780601f1061176e57610100808354040283529160200191611799565b820191906000526020600020905b81548152906001019060200180831161177c57829003601f168201915b5050505050908060020160009054906101000a900460ff16905083565b6060600280548060200260200160405190810160405280929190818152602001828054801561183a57602002820191906000526020600020905b8160009054906101000a900473ffffffffffffffffffffffffffffffffffffffff1673ffffffffffffffffffffffffffffffffffffffff16815260200190600101908083116117f0575b5050505050905090565b6001602052806000526040600020600091509050806000018054600181600116156101000203166002900480601f0160208091040260200160405190810160405280929190818152602001828054600181600116156101000203166002900480156118f05780601f106118c5576101008083540402835291602001916118f0565b820191906000526020600020905b8154815290600101906020018083116118d357829003601f168201915b505050505090806001018054600181600116156101000203166002900480601f01602080910402602001604051908101604052809291908181526020018280546001816001161561010002031660029004801561198e5780601f106119635761010080835404028352916020019161198e565b820191906000526020600020905b81548152906001019060200180831161197157829003601f168201915b5050505050908060020160009054906101000a900473ffffffffffffffffffffffffffffffffffffffff16908060020160149054906101000a900460ff16905084565b60606006805480602002602001604051908101604052809291908181526020018280548015611a5557602002820191906000526020600020905b8160009054906101000a900473ffffffffffffffffffffffffffffffffffffffff1673ffffffffffffffffffffffffffffffffffffffff1681526020019060010190808311611a0b575b5050505050905090565b6000809054906101000a900473ffffffffffffffffffffffffffffffffffffffff1673ffffffffffffffffffffffffffffffffffffffff163373ffffffffffffffffffffffffffffffffffffffff16141515611aba57600080fd5b6000809054906101000a900473ffffffffffffffffffffffffffffffffffffffff1673ffffffffffffffffffffffffffffffffffffffff16ff5b60008060009054906101000a900473ffffffffffffffffffffffffffffffffffffffff1673ffffffffffffffffffffffffffffffffffffffff163373ffffffffffffffffffffffffffffffffffffffff16141515611b5157600080fd5b600560008573ffffffffffffffffffffffffffffffffffffffff1673ffffffffffffffffffffffffffffffffffffffff1681526020019081526020016000209050600015158160020160009054906101000a900460ff1615151415611ca6577f3cdf985955e499413107b03adc7c7db5433c87ba6fa7a1beec377bb814138b9f338442604051808473ffffffffffffffffffffffffffffffffffffffff1673ffffffffffffffffffffffffffffffffffffffff16815260200180602001838152602001828103825284818151815260200191508051906020019080838360005b83811015611c4c578082015181840152602081019050611c31565b50505050905090810190601f168015611c795780820380516001836020036101000a031916815260200191505b5094505050505060405180910390a160018160020160006101000a81548160ff0219169083151502179055505b82816000019080519060200190611cbe929190613e5f565b5081816001019080519060200190611cd7929190613e5f565b5050505050565b606080611ce9613edf565b600360008573ffffffffffffffffffffffffffffffffffffffff1673ffffffffffffffffffffffffffffffffffffffff16815260200190815260200160002060606040519081016040529081600082018054600181600116156101000203166002900480601f016020809104026020016040519081016040528092919081815260200182805460018160011615610100020316600290048015611dcd5780601f10611da257610100808354040283529160200191611dcd565b820191906000526020600020905b815481529060010190602001808311611db057829003601f168201915b50505050508152602001600182018054600181600116156101000203166002900480601f016020809104026020016040519081016040528092919081815260200182805460018160011615610100020316600290048015611e6f5780601f10611e4457610100808354040283529160200191611e6f565b820191906000526020600020905b815481529060010190602001808311611e5257829003601f168201915b505050505081526020016002820160009054906101000a900460ff1615151515815250509050806000015192508060200151915050915091565b6000600280549050905090565b60008190508073ffffffffffffffffffffffffffffffffffffffff1663650d993b6040518163ffffffff167c0100000000000000000000000000000000000000000000000000000000028152600401602060405180830381600087803b158015611f1f57600080fd5b505af1158015611f33573d6000803e3d6000fd5b505050506040513d6020811015611f4957600080fd5b810190808051906020019092919050505073ffffffffffffffffffffffffffffffffffffffff163373ffffffffffffffffffffffffffffffffffffffff1614801561202f57508073ffffffffffffffffffffffffffffffffffffffff1663bb5d40eb6040518163ffffffff167c0100000000000000000000000000000000000000000000000000000000028152600401602060405180830381600087803b158015611ff357600080fd5b505af1158015612007573d6000803e3d6000fd5b505050506040513d602081101561201d57600080fd5b81019080805190602001909291905050505b151561203a57600080fd5b8073ffffffffffffffffffffffffffffffffffffffff16634a0b20aa6040518163ffffffff167c0100000000000000000000000000000000000000000000000000000000028152600401600060405180830381600087803b15801561209e57600080fd5b505af11580156120b2573d6000803e3d6000fd5b5050505060068290806001815401808255809150509060018203906000526020600020016000909192909190916101000a81548173ffffffffffffffffffffffffffffffffffffffff021916908373ffffffffffffffffffffffffffffffffffffffff160217905550505050565b606060048054806020026020016040519081016040528092919081815260200182805480156121a457602002820191906000526020600020905b8160009054906101000a900473ffffffffffffffffffffffffffffffffffffffff1673ffffffffffffffffffffffffffffffffffffffff168152602001906001019080831161215a575b5050505050905090565b60008060009054906101000a900473ffffffffffffffffffffffffffffffffffffffff1673ffffffffffffffffffffffffffffffffffffffff163373ffffffffffffffffffffffffffffffffffffffff1614151561220b57600080fd5b600360008573ffffffffffffffffffffffffffffffffffffffff1673ffffffffffffffffffffffffffffffffffffffff1681526020019081526020016000209050600015158160020160009054906101000a900460ff16151514156123c65760048490806001815401808255809150509060018203906000526020600020016000909192909190916101000a81548173ffffffffffffffffffffffffffffffffffffffff021916908373ffffffffffffffffffffffffffffffffffffffff160217905550507f783e5f858212246618c02751dfbc4e502a48ca372a20f94a46d8e99fe70c998c848442604051808473ffffffffffffffffffffffffffffffffffffffff1673ffffffffffffffffffffffffffffffffffffffff16815260200180602001838152602001828103825284818151815260200191508051906020019080838360005b8381101561236c578082015181840152602081019050612351565b50505050905090810190601f1680156123995780820380516001836020036101000a031916815260200191505b5094505050505060405180910390a160018160020160006101000a81548160ff0219169083151502179055505b828160000190805190602001906123de929190613e5f565b50818160010190805190602001906123f7929190613e5f565b5050505050565b60008060009054906101000a900473ffffffffffffffffffffffffffffffffffffffff16905090565b6000808390508073ffffffffffffffffffffffffffffffffffffffff1663565a2e2c6040518163ffffffff167c0100000000000000000000000000000000000000000000000000000000028152600401602060405180830381600087803b15801561249157600080fd5b505af11580156124a5573d6000803e3d6000fd5b505050506040513d60208110156124bb57600080fd5b810190808051906020019092919050505073ffffffffffffffffffffffffffffffffffffffff163373ffffffffffffffffffffffffffffffffffffffff161480156125a157508073ffffffffffffffffffffffffffffffffffffffff1663bb5d40eb6040518163ffffffff167c0100000000000000000000000000000000000000000000000000000000028152600401602060405180830381600087803b15801561256557600080fd5b505af1158015612579573d6000803e3d6000fd5b505050506040513d602081101561258f57600080fd5b81019080805190602001909291905050505b801561264857508073ffffffffffffffffffffffffffffffffffffffff1663cded37376040518163ffffffff167c0100000000000000000000000000000000000000000000000000000000028152600401602060405180830381600087803b15801561260c57600080fd5b505af1158015612620573d6000803e3d6000fd5b505050506040513d602081101561263657600080fd5b81019080805190602001909291905050505b151561265357600080fd5b8273ffffffffffffffffffffffffffffffffffffffff1663bea14fc18273ffffffffffffffffffffffffffffffffffffffff1663d321fe296040518163ffffffff167c0100000000000000000000000000000000000000000000000000000000028152600401602060405180830381600087803b1580156126d357600080fd5b505af11580156126e7573d6000803e3d6000fd5b505050506040513d60208110156126fd57600080fd5b81019080805190602001909291905050508373ffffffffffffffffffffffffffffffffffffffff1663b13564886040518163ffffffff167c0100000000000000000000000000000000000000000000000000000000028152600401602060405180830381600087803b15801561277257600080fd5b505af1158015612786573d6000803e3d6000fd5b505050506040513d602081101561279c57600080fd5b81019080805190602001909291905050506040518363ffffffff167c01000000000000000000000000000000000000000000000000000000000281526004018083815260200182815260200192505050600060405180830381600087803b15801561280657600080fd5b505af115801561281a573d6000803e3d6000fd5b505050508073ffffffffffffffffffffffffffffffffffffffff16634a0b20aa6040518163ffffffff167c0100000000000000000000000000000000000000000000000000000000028152600401600060405180830381600087803b15801561288257600080fd5b505af1158015612896573d6000803e3d6000fd5b5050505060068490806001815401808255809150509060018203906000526020600020016000909192909190916101000a81548173ffffffffffffffffffffffffffffffffffffffff021916908373ffffffffffffffffffffffffffffffffffffffff160217905550508391505092915050565b6000809054906101000a900473ffffffffffffffffffffffffffffffffffffffff1681565b60068181548110151561293e57fe5b906000526020600020016000915054906101000a900473ffffffffffffffffffffffffffffffffffffffff1681565b6000809054906101000a900473ffffffffffffffffffffffffffffffffffffffff1673ffffffffffffffffffffffffffffffffffffffff163373ffffffffffffffffffffffffffffffffffffffff161415156129c857600080fd5b60008173ffffffffffffffffffffffffffffffffffffffff1614156129ec57600080fd5b806000806101000a81548173ffffffffffffffffffffffffffffffffffffffff021916908373ffffffffffffffffffffffffffffffffffffffff16021790555050565b606080612a3a613edf565b6004805490508411151515612a4e57600080fd5b60036000600486815481101515612a6157fe5b9060005260206000200160009054906101000a900473ffffffffffffffffffffffffffffffffffffffff1673ffffffffffffffffffffffffffffffffffffffff1673ffffffffffffffffffffffffffffffffffffffff16815260200190815260200160002060606040519081016040529081600082018054600181600116156101000203166002900480601f016020809104026020016040519081016040528092919081815260200182805460018160011615610100020316600290048015612b6b5780601f10612b4057610100808354040283529160200191612b6b565b820191906000526020600020905b815481529060010190602001808311612b4e57829003601f168201915b50505050508152602001600182018054600181600116156101000203166002900480601f016020809104026020016040519081016040528092919081815260200182805460018160011615610100020316600290048015612c0d5780601f10612be257610100808354040283529160200191612c0d565b820191906000526020600020905b815481529060010190602001808311612bf057829003601f168201915b505050505081526020016002820160009054906101000a900460ff1615151515815250509050806000015181602001518191508090509250925050915091565b60008190508073ffffffffffffffffffffffffffffffffffffffff166360d704db6040518163ffffffff167c0100000000000000000000000000000000000000000000000000000000028152600401602060405180830381600087803b158015612cb657600080fd5b505af1158015612cca573d6000803e3d6000fd5b505050506040513d6020811015612ce057600080fd5b810190808051906020019092919050505073ffffffffffffffffffffffffffffffffffffffff163373ffffffffffffffffffffffffffffffffffffffff16148015612dc657508073ffffffffffffffffffffffffffffffffffffffff1663bb5d40eb6040518163ffffffff167c0100000000000000000000000000000000000000000000000000000000028152600401602060405180830381600087803b158015612d8a57600080fd5b505af1158015612d9e573d6000803e3d6000fd5b505050506040513d6020811015612db457600080fd5b81019080805190602001909291905050505b1515612dd157600080fd5b8073ffffffffffffffffffffffffffffffffffffffff16632852b71c6040518163ffffffff167c0100000000000000000000000000000000000000000000000000000000028152600401602060405180830381600087803b158015612e3557600080fd5b505af1158015612e49573d6000803e3d6000fd5b505050506040513d6020811015612e5f57600080fd5b8101908080519060200190929190505050156130c7578073ffffffffffffffffffffffffffffffffffffffff1663cded37376040518163ffffffff167c0100000000000000000000000000000000000000000000000000000000028152600401602060405180830381600087803b158015612ed957600080fd5b505af1158015612eed573d6000803e3d6000fd5b505050506040513d6020811015612f0357600080fd5b81019080805190602001909291905050501561305f5761305e8173ffffffffffffffffffffffffffffffffffffffff16636f00817e6040518163ffffffff167c0100000000000000000000000000000000000000000000000000000000028152600401602060405180830381600087803b158015612f8057600080fd5b505af1158015612f94573d6000803e3d6000fd5b505050506040513d6020811015612faa57600080fd5b810190808051906020019092919050505073ffffffffffffffffffffffffffffffffffffffff16633f40d18f6040518163ffffffff167c0100000000000000000000000000000000000000000000000000000000028152600401602060405180830381600087803b15801561301e57600080fd5b505af1158015613032573d6000803e3d6000fd5b505050506040513d602081101561304857600080fd5b81019080805190602001909291905050506138ac565b5b7f1457a9baaa8780bd74ceb2f0317119ca2bd8fc94db0895f9d641400b8571459082604051808273ffffffffffffffffffffffffffffffffffffffff1673ffffffffffffffffffffffffffffffffffffffff16815260200191505060405180910390a16130cc565b600080fd5b5050565b60608060006130dd613f03565b600280549050851015156130f057600080fd5b6001600060028781548110151561310357fe5b9060005260206000200160009054906101000a900473ffffffffffffffffffffffffffffffffffffffff1673ffffffffffffffffffffffffffffffffffffffff1673ffffffffffffffffffffffffffffffffffffffff16815260200190815260200160002060806040519081016040529081600082018054600181600116156101000203166002900480601f01602080910402602001604051908101604052809291908181526020018280546001816001161561010002031660029004801561320d5780601f106131e25761010080835404028352916020019161320d565b820191906000526020600020905b8154815290600101906020018083116131f057829003601f168201915b50505050508152602001600182018054600181600116156101000203166002900480601f0160208091040260200160405190810160405280929190818152602001828054600181600116156101000203166002900480156132af5780601f10613284576101008083540402835291602001916132af565b820191906000526020600020905b81548152906001019060200180831161329257829003601f168201915b505050505081526020016002820160009054906101000a900473ffffffffffffffffffffffffffffffffffffffff1673ffffffffffffffffffffffffffffffffffffffff1673ffffffffffffffffffffffffffffffffffffffff1681526020016002820160149054906101000a900460ff1615151515815250509050806000015181602001518260400151829250819150935093509350509193909250565b606060078054806020026020016040519081016040528092919081815260200182805480156133d257602002820191906000526020600020905b8160009054906101000a900473ffffffffffffffffffffffffffffffffffffffff1673ffffffffffffffffffffffffffffffffffffffff1681526020019060010190808311613388575b5050505050905090565b6060806133e7613f44565b600560008573ffffffffffffffffffffffffffffffffffffffff1673ffffffffffffffffffffffffffffffffffffffff16815260200190815260200160002060606040519081016040529081600082018054600181600116156101000203166002900480601f0160208091040260200160405190810160405280929190818152602001828054600181600116156101000203166002900480156134cb5780601f106134a0576101008083540402835291602001916134cb565b820191906000526020600020905b8154815290600101906020018083116134ae57829003601f168201915b50505050508152602001600182018054600181600116156101000203166002900480601f01602080910402602001604051908101604052809291908181526020018280546001816001161561010002031660029004801561356d5780601f106135425761010080835404028352916020019161356d565b820191906000526020600020905b81548152906001019060200180831161355057829003601f168201915b505050505081526020016002820160009054906101000a900460ff1615151515815250509050806000015192508060200151915050915091565b60008060009054906101000a900473ffffffffffffffffffffffffffffffffffffffff1673ffffffffffffffffffffffffffffffffffffffff163373ffffffffffffffffffffffffffffffffffffffff1614151561360457600080fd5b600160008573ffffffffffffffffffffffffffffffffffffffff1673ffffffffffffffffffffffffffffffffffffffff1681526020019081526020016000209050600015158160020160149054906101000a900460ff16151514156137f35760028490806001815401808255809150509060018203906000526020600020016000909192909190916101000a81548173ffffffffffffffffffffffffffffffffffffffff021916908373ffffffffffffffffffffffffffffffffffffffff160217905550507fb3bb6454838f769878c9da3dacefc82660ff82c898c373385ad5e32c9aa4767433858542604051808573ffffffffffffffffffffffffffffffffffffffff1673ffffffffffffffffffffffffffffffffffffffff1681526020018473ffffffffffffffffffffffffffffffffffffffff1673ffffffffffffffffffffffffffffffffffffffff16815260200180602001838152602001828103825284818151815260200191508051906020019080838360005b8381101561379857808201518184015260208101905061377d565b50505050905090810190601f1680156137c55780820380516001836020036101000a031916815260200191505b509550505050505060405180910390a160018160020160146101000a81548160ff0219169083151502179055505b8281600001908051906020019061380b929190613e5f565b5081816001019080519060200190613824929190613e5f565b50838160020160006101000a81548173ffffffffffffffffffffffffffffffffffffffff021916908373ffffffffffffffffffffffffffffffffffffffff16021790555050505050565b60078181548110151561387d57fe5b906000526020600020016000915054906101000a900473ffffffffffffffffffffffffffffffffffffffff1681565b6000808291508173ffffffffffffffffffffffffffffffffffffffff166388a22f7a6040518163ffffffff167c0100000000000000000000000000000000000000000000000000000000028152600401602060405180830381600087803b15801561391657600080fd5b505af115801561392a573d6000803e3d6000fd5b505050506040513d602081101561394057600080fd5b81019080805190602001909291905050509050600073ffffffffffffffffffffffffffffffffffffffff168373ffffffffffffffffffffffffffffffffffffffff1614158015613a5b5750600073ffffffffffffffffffffffffffffffffffffffff168173ffffffffffffffffffffffffffffffffffffffff16633f40d18f6040518163ffffffff167c0100000000000000000000000000000000000000000000000000000000028152600401602060405180830381600087803b158015613a0757600080fd5b505af1158015613a1b573d6000803e3d6000fd5b505050506040513d6020811015613a3157600080fd5b810190808051906020019092919050505073ffffffffffffffffffffffffffffffffffffffff1614155b8015613b3057508073ffffffffffffffffffffffffffffffffffffffff1663565a2e2c6040518163ffffffff167c0100000000000000000000000000000000000000000000000000000000028152600401602060405180830381600087803b158015613ac657600080fd5b505af1158015613ada573d6000803e3d6000fd5b505050506040513d6020811015613af057600080fd5b810190808051906020019092919050505073ffffffffffffffffffffffffffffffffffffffff163373ffffffffffffffffffffffffffffffffffffffff16145b1515613b3b57600080fd5b8173ffffffffffffffffffffffffffffffffffffffff1663c700c70d6040518163ffffffff167c0100000000000000000000000000000000000000000000000000000000028152600401600060405180830381600087803b158015613b9f57600080fd5b505af1158015613bb3573d6000803e3d6000fd5b505050508073ffffffffffffffffffffffffffffffffffffffff1663c700c70d6040518163ffffffff167c0100000000000000000000000000000000000000000000000000000000028152600401600060405180830381600087803b158015613c1b57600080fd5b505af1158015613c2f573d6000803e3d6000fd5b50505050505050565b606080613c43613f03565b600160008573ffffffffffffffffffffffffffffffffffffffff1673ffffffffffffffffffffffffffffffffffffffff16815260200190815260200160002060806040519081016040529081600082018054600181600116156101000203166002900480601f016020809104026020016040519081016040528092919081815260200182805460018160011615610100020316600290048015613d275780601f10613cfc57610100808354040283529160200191613d27565b820191906000526020600020905b815481529060010190602001808311613d0a57829003601f168201915b50505050508152602001600182018054600181600116156101000203166002900480601f016020809104026020016040519081016040528092919081815260200182805460018160011615610100020316600290048015613dc95780601f10613d9e57610100808354040283529160200191613dc9565b820191906000526020600020905b815481529060010190602001808311613dac57829003601f168201915b505050505081526020016002820160009054906101000a900473ffffffffffffffffffffffffffffffffffffffff1673ffffffffffffffffffffffffffffffffffffffff1673ffffffffffffffffffffffffffffffffffffffff1681526020016002820160149054906101000a900460ff1615151515815250509050806000015181602001518191508090509250925050915091565b828054600181600116156101000203166002900490600052602060002090601f016020900481019282601f10613ea057805160ff1916838001178555613ece565b82800160010185558215613ece579182015b82811115613ecd578251825591602001919060010190613eb2565b5b509050613edb9190613f68565b5090565b60606040519081016040528060608152602001606081526020016000151581525090565b6080604051908101604052806060815260200160608152602001600073ffffffffffffffffffffffffffffffffffffffff1681526020016000151581525090565b60606040519081016040528060608152602001606081526020016000151581525090565b613f8a91905b80821115613f86576000816000905550600101613f6e565b5090565b905600a165627a7a72305820511cd1a5a56c11c28427afa8f6917741bdc6191434a38273b36f9b8f0e8040b00029",
  "source": "pragma solidity ^0.4.18;\n\nimport \"./Ownable.sol\";\nimport \"./GuaranteeConst.sol\";\nimport \"./IssuerManager.sol\";\nimport \"./BeneficiaryManager.sol\";\nimport \"./CustomerManager.sol\";\nimport \"./GuaranteeRequest.sol\";\nimport \"./ChangeGuaranteeRequest.sol\";\n\n//\n////###\n//// general contract for better operations of the system\n////###\n//contract owned {\n//    //owner address for ownership validation\n//    address owner;\n//\n//    //constractor to verify real owner assignment\n//    function owned() {\n//        owner = msg.sender;\n//        log(\"owner=\",owner);\n//    }\n//\n//    //owner check modifier\n//    modifier onlyOwner {\n//        require(msg.sender == owner);\n//        _;\n//    }\n//\n//    //contract distruction by owner only\n//    function close() onlyOwner {\n//        log(\"##contract closed by owner=\",owner);\n//        selfdestruct(owner);\n//    }\n//\n//    //constractor to verify real owner assignment\n//    function getOwner() constant returns (address){\n//        return owner ;\n//    }\n//    //log event for debug purposes\n//    event log(string loga, address logb);\n//}\n\n\ncontract Regulator is Ownable,IssuerManager,BeneficiaryManager,CustomerManager,GuaranteeConst{\n\n    //guarantee request states\n    address [] public  guaranteeRequests;\n    address [] public  guarantees;\n\n\n\n\n    event RegulatoryContractDeployed (address msgSender,string msgstr,uint timestamp);\n    function Regulator(){\n//        owner = msg.sender;\n\n\n        submitBeneficiary(0xd0f2997b8e503f80ba4bd907cd2daf16a23f036c,\"  \",\" 20,  \");\n        submitBeneficiary(msg.sender,\" -\",\"  69\");\n        submitCustomer(msg.sender,\" \",\" 11  \");\n        submitIssuer(msg.sender,\" \",\" 11  \");\n        RegulatoryContractDeployed(msg.sender,\"Mined\",now);\n    }\n\n\n    function getRequestAddressList() public constant returns (address[] )\n\n    {\n//         AAA(guaranteeRequests.length);\n        return guaranteeRequests;\n\n\n    }\n\n    function getGuaranteeAddressesList() public constant returns (address[] )\n    {\n\n        return guarantees;\n\n    }\n\n\n\n\n\n//    event AAA(uint length);\n\n    function addGuaranteeRequest(address  _guaranteeRequest)  public\n    {\n\n        GuaranteeRequestExtender ge=GuaranteeRequestExtender(_guaranteeRequest);\n        require(msg.sender == ge.getCustomer() && ge.isValid());\n        ge.setRegulator();\n        guaranteeRequests.push(_guaranteeRequest);\n\n\n    }\n\n    event GuaranteeSign(address  _guaranteeRequest);\n    function acceptGuaranteeRequest(address  _guaranteeRequest)  public\n    {\n        GuaranteeRequestExtender ge=GuaranteeRequestExtender(_guaranteeRequest);\n        require(msg.sender == ge.getBank() && ge.isValid());\n\n\n        if (ge.accept()) {\n            if (ge.isChangeRequest())\n            {\n                terminateGuarantee(GuaranteeRequestExtender(ge.getChangeRequestGuarantee()).getGuaranteeAddress());\n            }\n            GuaranteeSign(_guaranteeRequest);\n        }\n        else\n            throw;\n    }\n\n    function GuaranteeSignComplite(address  _guaranteeRequest,bytes _guaranteeIPFSHash)  public  returns (address)\n    {\n        GuaranteeRequestExtender ge=GuaranteeRequestExtender(_guaranteeRequest);\n//        require( ge.getRequestState()==RequestState.accepted &&  msg.sender == ge.getBank());\n\n        address gra=ge.signComplite(_guaranteeIPFSHash);\n//        address gra=this;\n//        AAA(1);\n        guarantees.push(gra);\n\n        return gra;\n\n    }\n\n\n\n\n\n    function terminateGuarantee(address  _guarantee)  public\n    {\n\n\n\n        GuaranteeExtender ge= GuaranteeExtender(_guarantee);\n        GuaranteeRequestExtender ger=GuaranteeRequestExtender(ge.getGuaranteeRequest());\n        require( _guarantee!= address(0) && ger.getGuaranteeAddress()!= address(0) && msg.sender == ger.getBeneficiary() );\n\n        ge.terminateGuarantee() ;\n        ger.terminateGuarantee();\n\n\n    }\n\n\n\n\n\n//    function changeGuarantee(address  _guarantee ,uint _newamount, uint _newendDate)  returns (bool)  //onlyBeneficiary\n//    {\n////        GuaranteeExtender ge= GuaranteeExtender(_guarantee);\n////        GuaranteeRequestExtender ger=GuaranteeRequestExtender(ge.getGuaranteeRequest());\n////        require( ger.getRequestState()==RequestState.accepted && msg.sender == ger.getBeneficiary() && _guarantee!= address(0));\n////\n////        ger.changeRequested( _newamount,  _newendDate);\n////        ChangeGuaranteeRequest newger=new ChangeGuaranteeRequest(ge.getGuaranteeRequest(),_newamount, _newendDate);\n////        guaranteeRequests.push(newger.getId());\n//\n////        guaranteeRequests.push( new ChangeGuaranteeRequest(ge.getGuaranteeRequest(),_newamount, _newendDate).getId());\n////        return true;\n//    }\n\n    function changeGuarantee(address  _changeGuaranteeRequest,address guarantie )  public  returns (address)//onlyBeneficiary\n    {\n        ChangeGuaranteeRequest newger=ChangeGuaranteeRequest(_changeGuaranteeRequest);\n        require(msg.sender == newger.getBeneficiary() && newger.isValid() && newger.isChangeRequest());\n        GuaranteeExtender(guarantie).changeRequest(newger.getAmount(),newger.getEndDate());\n//            .getChangeRequestGuarantee()).\n        newger.setRegulator();\n        guaranteeRequests.push(_changeGuaranteeRequest);\n        return _changeGuaranteeRequest;\n    }\n\n\n\n}\n",
  "sourcePath": "/Users/irachka/DimaPOCProject/guarantees/contracts/Regulator.sol",
  "compiler": {
    "name": "solc",
    "version": "0.4.23+commit.124ca40d.Emscripten.clang"
  },
  "schemaVersion": "2.0.0",
  "updatedAt": "2018-05-07T07:07:29.568Z"
}